{
  "address": "0xaf962D5adB264e3Bb7397e378dD775a5645e7606",
  "abi": [
    {
      "inputs": [],
      "stateMutability": "nonpayable",
      "type": "constructor"
    },
    {
      "anonymous": false,
      "inputs": [
        {
          "indexed": true,
          "internalType": "address",
          "name": "account",
          "type": "address"
        },
        {
          "indexed": true,
          "internalType": "address",
          "name": "operator",
          "type": "address"
        },
        {
          "indexed": false,
          "internalType": "bool",
          "name": "approved",
          "type": "bool"
        }
      ],
      "name": "ApprovalForAll",
      "type": "event"
    },
    {
      "anonymous": false,
      "inputs": [
        {
          "indexed": true,
          "internalType": "address",
          "name": "previousOwner",
          "type": "address"
        },
        {
          "indexed": true,
          "internalType": "address",
          "name": "newOwner",
          "type": "address"
        }
      ],
      "name": "OwnershipTransferred",
      "type": "event"
    },
    {
      "anonymous": false,
      "inputs": [
        {
          "indexed": true,
          "internalType": "address",
          "name": "operator",
          "type": "address"
        },
        {
          "indexed": true,
          "internalType": "address",
          "name": "from",
          "type": "address"
        },
        {
          "indexed": true,
          "internalType": "address",
          "name": "to",
          "type": "address"
        },
        {
          "indexed": false,
          "internalType": "uint256[]",
          "name": "ids",
          "type": "uint256[]"
        },
        {
          "indexed": false,
          "internalType": "uint256[]",
          "name": "values",
          "type": "uint256[]"
        }
      ],
      "name": "TransferBatch",
      "type": "event"
    },
    {
      "anonymous": false,
      "inputs": [
        {
          "indexed": true,
          "internalType": "address",
          "name": "operator",
          "type": "address"
        },
        {
          "indexed": true,
          "internalType": "address",
          "name": "from",
          "type": "address"
        },
        {
          "indexed": true,
          "internalType": "address",
          "name": "to",
          "type": "address"
        },
        {
          "indexed": false,
          "internalType": "uint256",
          "name": "id",
          "type": "uint256"
        },
        {
          "indexed": false,
          "internalType": "uint256",
          "name": "value",
          "type": "uint256"
        }
      ],
      "name": "TransferSingle",
      "type": "event"
    },
    {
      "anonymous": false,
      "inputs": [
        {
          "indexed": false,
          "internalType": "string",
          "name": "value",
          "type": "string"
        },
        {
          "indexed": true,
          "internalType": "uint256",
          "name": "id",
          "type": "uint256"
        }
      ],
      "name": "URI",
      "type": "event"
    },
    {
      "inputs": [
        {
          "internalType": "address",
          "name": "account",
          "type": "address"
        },
        {
          "internalType": "uint256",
          "name": "id",
          "type": "uint256"
        }
      ],
      "name": "balanceOf",
      "outputs": [
        {
          "internalType": "uint256",
          "name": "",
          "type": "uint256"
        }
      ],
      "stateMutability": "view",
      "type": "function"
    },
    {
      "inputs": [
        {
          "internalType": "address[]",
          "name": "accounts",
          "type": "address[]"
        },
        {
          "internalType": "uint256[]",
          "name": "ids",
          "type": "uint256[]"
        }
      ],
      "name": "balanceOfBatch",
      "outputs": [
        {
          "internalType": "uint256[]",
          "name": "",
          "type": "uint256[]"
        }
      ],
      "stateMutability": "view",
      "type": "function"
    },
    {
      "inputs": [
        {
          "internalType": "uint256",
          "name": "_id",
          "type": "uint256"
        },
        {
          "internalType": "uint256",
          "name": "_amount",
          "type": "uint256"
        }
      ],
      "name": "burn",
      "outputs": [],
      "stateMutability": "nonpayable",
      "type": "function"
    },
    {
      "inputs": [
        {
          "internalType": "address",
          "name": "account",
          "type": "address"
        },
        {
          "internalType": "address",
          "name": "operator",
          "type": "address"
        }
      ],
      "name": "isApprovedForAll",
      "outputs": [
        {
          "internalType": "bool",
          "name": "",
          "type": "bool"
        }
      ],
      "stateMutability": "view",
      "type": "function"
    },
    {
      "inputs": [],
      "name": "maxSupply",
      "outputs": [
        {
          "internalType": "uint16",
          "name": "",
          "type": "uint16"
        }
      ],
      "stateMutability": "view",
      "type": "function"
    },
    {
      "inputs": [
        {
          "internalType": "address",
          "name": "_to",
          "type": "address"
        },
        {
          "internalType": "uint256",
          "name": "id",
          "type": "uint256"
        },
        {
          "internalType": "uint256",
          "name": "amount",
          "type": "uint256"
        }
      ],
      "name": "mint",
      "outputs": [],
      "stateMutability": "nonpayable",
      "type": "function"
    },
    {
      "inputs": [],
      "name": "name",
      "outputs": [
        {
          "internalType": "string",
          "name": "",
          "type": "string"
        }
      ],
      "stateMutability": "view",
      "type": "function"
    },
    {
      "inputs": [],
      "name": "owner",
      "outputs": [
        {
          "internalType": "address",
          "name": "",
          "type": "address"
        }
      ],
      "stateMutability": "view",
      "type": "function"
    },
    {
      "inputs": [],
      "name": "renounceOwnership",
      "outputs": [],
      "stateMutability": "nonpayable",
      "type": "function"
    },
    {
      "inputs": [
        {
          "internalType": "address",
          "name": "from",
          "type": "address"
        },
        {
          "internalType": "address",
          "name": "to",
          "type": "address"
        },
        {
          "internalType": "uint256[]",
          "name": "ids",
          "type": "uint256[]"
        },
        {
          "internalType": "uint256[]",
          "name": "amounts",
          "type": "uint256[]"
        },
        {
          "internalType": "bytes",
          "name": "data",
          "type": "bytes"
        }
      ],
      "name": "safeBatchTransferFrom",
      "outputs": [],
      "stateMutability": "nonpayable",
      "type": "function"
    },
    {
      "inputs": [
        {
          "internalType": "address",
          "name": "from",
          "type": "address"
        },
        {
          "internalType": "address",
          "name": "to",
          "type": "address"
        },
        {
          "internalType": "uint256",
          "name": "id",
          "type": "uint256"
        },
        {
          "internalType": "uint256",
          "name": "amount",
          "type": "uint256"
        },
        {
          "internalType": "bytes",
          "name": "data",
          "type": "bytes"
        }
      ],
      "name": "safeTransferFrom",
      "outputs": [],
      "stateMutability": "nonpayable",
      "type": "function"
    },
    {
      "inputs": [
        {
          "internalType": "address",
          "name": "operator",
          "type": "address"
        },
        {
          "internalType": "bool",
          "name": "approved",
          "type": "bool"
        }
      ],
      "name": "setApprovalForAll",
      "outputs": [],
      "stateMutability": "nonpayable",
      "type": "function"
    },
    {
      "inputs": [
        {
          "internalType": "uint256",
          "name": "_id",
          "type": "uint256"
        },
        {
          "internalType": "string",
          "name": "_uri",
          "type": "string"
        }
      ],
      "name": "setURI",
      "outputs": [],
      "stateMutability": "nonpayable",
      "type": "function"
    },
    {
      "inputs": [
        {
          "internalType": "bytes4",
          "name": "interfaceId",
          "type": "bytes4"
        }
      ],
      "name": "supportsInterface",
      "outputs": [
        {
          "internalType": "bool",
          "name": "",
          "type": "bool"
        }
      ],
      "stateMutability": "view",
      "type": "function"
    },
    {
      "inputs": [],
      "name": "symbol",
      "outputs": [
        {
          "internalType": "string",
          "name": "",
          "type": "string"
        }
      ],
      "stateMutability": "view",
      "type": "function"
    },
    {
      "inputs": [
        {
          "internalType": "uint256",
          "name": "",
          "type": "uint256"
        }
      ],
      "name": "tokenURI",
      "outputs": [
        {
          "internalType": "string",
          "name": "",
          "type": "string"
        }
      ],
      "stateMutability": "view",
      "type": "function"
    },
    {
      "inputs": [
        {
          "internalType": "address",
          "name": "newOwner",
          "type": "address"
        }
      ],
      "name": "transferOwnership",
      "outputs": [],
      "stateMutability": "nonpayable",
      "type": "function"
    },
    {
      "inputs": [
        {
          "internalType": "uint256",
          "name": "_id",
          "type": "uint256"
        }
      ],
      "name": "uri",
      "outputs": [
        {
          "internalType": "string",
          "name": "",
          "type": "string"
        }
      ],
      "stateMutability": "view",
      "type": "function"
    },
    {
      "inputs": [],
      "name": "withdraw",
      "outputs": [],
      "stateMutability": "payable",
      "type": "function"
    },
    {
      "stateMutability": "payable",
      "type": "receive"
    }
  ],
  "transactionHash": "0xa86e6698b1076aab1f0c61db3bda471ec3882831ffaafb2b212066597e606a93",
  "args": [],
  "numDeployments": 1,
  "solcInputHash": "3c328e16a016cad91dc53e61743dd3f1",
  "bytecode": "0x60806040526005805463ffffffff19166264140a1790553480156200002357600080fd5b506040805160208101909152600081526200003e81620000c3565b506200004a33620000d5565b60016004556040805180820190915260128152712aa3a62c902aa92120a71023a7a6212624a760711b6020820152600790620000879082620001cc565b5060408051808201909152600381526255554760e81b6020820152600890620000b19082620001cc565b5066b1a2bc2ec5000060065562000298565b6002620000d18282620001cc565b5050565b600380546001600160a01b038381166001600160a01b0319831681179093556040519116919082907f8be0079c531659141344cd1fd0a4f28419497f9722a3daafe3b4186f6b6457e090600090a35050565b634e487b7160e01b600052604160045260246000fd5b600181811c908216806200015257607f821691505b6020821081036200017357634e487b7160e01b600052602260045260246000fd5b50919050565b601f821115620001c757600081815260208120601f850160051c81016020861015620001a25750805b601f850160051c820191505b81811015620001c357828155600101620001ae565b5050505b505050565b81516001600160401b03811115620001e857620001e862000127565b6200020081620001f984546200013d565b8462000179565b602080601f8311600181146200023857600084156200021f5750858301515b600019600386901b1c1916600185901b178555620001c3565b600085815260208120601f198616915b82811015620002695788860151825594840194600190910190840162000248565b5085821015620002885787850151600019600388901b60f8161c191681555b5050505050600190811b01905550565b611e6080620002a86000396000f3fe6080604052600436106101175760003560e01c8063862440e2116100a0578063c87b56dd11610064578063c87b56dd146102f1578063d5abeb0114610311578063e985e9c514610345578063f242432a1461038e578063f2fde38b146103ae57600080fd5b8063862440e2146102545780638da5cb5b1461027457806395d89b411461029c578063a22cb465146102b1578063b390c0ab146102d157600080fd5b8063156e29f6116100e7578063156e29f6146101c85780632eb2c2d6146101ea5780633ccfd60b1461020a5780634e1273f414610212578063715018a61461023f57600080fd5b8062fdd58e1461012357806301ffc9a71461015657806306fdde03146101865780630e89341c146101a857600080fd5b3661011e57005b600080fd5b34801561012f57600080fd5b5061014361013e36600461144f565b6103ce565b6040519081526020015b60405180910390f35b34801561016257600080fd5b5061017661017136600461148f565b610467565b604051901515815260200161014d565b34801561019257600080fd5b5061019b6104b7565b60405161014d91906114f9565b3480156101b457600080fd5b5061019b6101c336600461150c565b610545565b3480156101d457600080fd5b506101e86101e3366004611525565b6105e7565b005b3480156101f657600080fd5b506101e86102053660046116ae565b6106ee565b6101e8610733565b34801561021e57600080fd5b5061023261022d366004611758565b6107bd565b60405161014d919061185e565b34801561024b57600080fd5b506101e86108e7565b34801561026057600080fd5b506101e861026f366004611871565b6108fb565b34801561028057600080fd5b506003546040516001600160a01b03909116815260200161014d565b3480156102a857600080fd5b5061019b610958565b3480156102bd57600080fd5b506101e86102cc3660046118c2565b610965565b3480156102dd57600080fd5b506101e86102ec3660046118fe565b610974565b3480156102fd57600080fd5b5061019b61030c36600461150c565b6109d8565b34801561031d57600080fd5b506005546103329062010000900461ffff1681565b60405161ffff909116815260200161014d565b34801561035157600080fd5b50610176610360366004611920565b6001600160a01b03918216600090815260016020908152604080832093909416825291909152205460ff1690565b34801561039a57600080fd5b506101e86103a9366004611953565b6109f1565b3480156103ba57600080fd5b506101e86103c93660046119b8565b610a36565b60006001600160a01b03831661043e5760405162461bcd60e51b815260206004820152602a60248201527f455243313135353a2061646472657373207a65726f206973206e6f742061207660448201526930b634b21037bbb732b960b11b60648201526084015b60405180910390fd5b506000818152602081815260408083206001600160a01b03861684529091529020545b92915050565b60006001600160e01b03198216636cdb3d1360e11b148061049857506001600160e01b031982166303a24d0760e21b145b8061046157506301ffc9a760e01b6001600160e01b0319831614610461565b600780546104c4906119d3565b80601f01602080910402602001604051908101604052809291908181526020018280546104f0906119d3565b801561053d5780601f106105125761010080835404028352916020019161053d565b820191906000526020600020905b81548152906001019060200180831161052057829003601f168201915b505050505081565b6000818152600960205260409020805460609190610562906119d3565b80601f016020809104026020016040519081016040528092919081815260200182805461058e906119d3565b80156105db5780601f106105b0576101008083540402835291602001916105db565b820191906000526020600020905b8154815290600101906020018083116105be57829003601f168201915b50505050509050919050565b6105ef610aaf565b60006105fb84846103ce565b90506000821180156106175750600554610100900460ff168211155b6106635760405162461bcd60e51b815260206004820152601b60248201527f50757263686173653a20616d6f756e742070726f6869626974656400000000006044820152606401610435565b600061066f8383611a23565b600554909150610100900460ff168111156106cc5760405162461bcd60e51b815260206004820152601c60248201527f50757263686173653a204d617820737570706c792072656163686564000000006044820152606401610435565b6106e785858560405180602001604052806000815250610b09565b5050505050565b6001600160a01b03851633148061070a575061070a8533610360565b6107265760405162461bcd60e51b815260040161043590611a36565b6106e78585858585610c1d565b61073b610aaf565b60026004540361078d5760405162461bcd60e51b815260206004820152601f60248201527f5265656e7472616e637947756172643a207265656e7472616e742063616c6c006044820152606401610435565b600260045560405133904780156108fc02916000818181858888f193505050506107b657600080fd5b6001600455565b606081518351146108225760405162461bcd60e51b815260206004820152602960248201527f455243313135353a206163636f756e747320616e6420696473206c656e677468604482015268040dad2e6dac2e8c6d60bb1b6064820152608401610435565b6000835167ffffffffffffffff81111561083e5761083e611558565b604051908082528060200260200182016040528015610867578160200160208202803683370190505b50905060005b84518110156108df576108b285828151811061088b5761088b611a85565b60200260200101518583815181106108a5576108a5611a85565b60200260200101516103ce565b8282815181106108c4576108c4611a85565b60209081029190910101526108d881611a9b565b905061086d565b509392505050565b6108ef610aaf565b6108f96000610dfa565b565b610903610aaf565b600082815260096020526040902061091b8282611aff565b50817f6bb7ff708619ba0610cba295a58592e0451dee2622938c8755667688daf3529b8260405161094c91906114f9565b60405180910390a25050565b600880546104c4906119d3565b610970338383610e4c565b5050565b600061098033846103ce565b116109cd5760405162461bcd60e51b815260206004820152601860248201527f4255524e20596f75277265206e6f7420616e204f776e657200000000000000006044820152606401610435565b610970338383610f2c565b600960205260009081526040902080546104c4906119d3565b6001600160a01b038516331480610a0d5750610a0d8533610360565b610a295760405162461bcd60e51b815260040161043590611a36565b6106e785858585856110a8565b610a3e610aaf565b6001600160a01b038116610aa35760405162461bcd60e51b815260206004820152602660248201527f4f776e61626c653a206e6577206f776e657220697320746865207a65726f206160448201526564647265737360d01b6064820152608401610435565b610aac81610dfa565b50565b6003546001600160a01b031633146108f95760405162461bcd60e51b815260206004820181905260248201527f4f776e61626c653a2063616c6c6572206973206e6f7420746865206f776e65726044820152606401610435565b6001600160a01b038416610b695760405162461bcd60e51b815260206004820152602160248201527f455243313135353a206d696e7420746f20746865207a65726f206164647265736044820152607360f81b6064820152608401610435565b336000610b75856111d2565b90506000610b82856111d2565b90506000868152602081815260408083206001600160a01b038b16845290915281208054879290610bb4908490611a23565b909155505060408051878152602081018790526001600160a01b03808a1692600092918716917fc3d58168c5ae7397731d063d5bbf3d657854427343f4c083240f7aacaa2d0f62910160405180910390a4610c148360008989898961121d565b50505050505050565b8151835114610c7f5760405162461bcd60e51b815260206004820152602860248201527f455243313135353a2069647320616e6420616d6f756e7473206c656e677468206044820152670dad2e6dac2e8c6d60c31b6064820152608401610435565b6001600160a01b038416610ca55760405162461bcd60e51b815260040161043590611bbf565b3360005b8451811015610d8c576000858281518110610cc657610cc6611a85565b602002602001015190506000858381518110610ce457610ce4611a85565b602090810291909101810151600084815280835260408082206001600160a01b038e168352909352919091205490915081811015610d345760405162461bcd60e51b815260040161043590611c04565b6000838152602081815260408083206001600160a01b038e8116855292528083208585039055908b16825281208054849290610d71908490611a23565b9250508190555050505080610d8590611a9b565b9050610ca9565b50846001600160a01b0316866001600160a01b0316826001600160a01b03167f4a39dc06d4c0dbc64b70af90fd698a233a518aa5d07e595d983b8c0526c8f7fb8787604051610ddc929190611c4e565b60405180910390a4610df2818787878787611378565b505050505050565b600380546001600160a01b038381166001600160a01b0319831681179093556040519116919082907f8be0079c531659141344cd1fd0a4f28419497f9722a3daafe3b4186f6b6457e090600090a35050565b816001600160a01b0316836001600160a01b031603610ebf5760405162461bcd60e51b815260206004820152602960248201527f455243313135353a2073657474696e6720617070726f76616c20737461747573604482015268103337b91039b2b63360b91b6064820152608401610435565b6001600160a01b03838116600081815260016020908152604080832094871680845294825291829020805460ff191686151590811790915591519182527f17307eab39ab6107e8899845ad3d59bd9653f200f220920489ca2b5937696c31910160405180910390a3505050565b6001600160a01b038316610f8e5760405162461bcd60e51b815260206004820152602360248201527f455243313135353a206275726e2066726f6d20746865207a65726f206164647260448201526265737360e81b6064820152608401610435565b336000610f9a846111d2565b90506000610fa7846111d2565b60408051602080820183526000918290528882528181528282206001600160a01b038b16835290522054909150848110156110305760405162461bcd60e51b8152602060048201526024808201527f455243313135353a206275726e20616d6f756e7420657863656564732062616c604482015263616e636560e01b6064820152608401610435565b6000868152602081815260408083206001600160a01b038b81168086529184528285208a8703905582518b81529384018a90529092908816917fc3d58168c5ae7397731d063d5bbf3d657854427343f4c083240f7aacaa2d0f62910160405180910390a4604080516020810190915260009052610c14565b6001600160a01b0384166110ce5760405162461bcd60e51b815260040161043590611bbf565b3360006110da856111d2565b905060006110e7856111d2565b90506000868152602081815260408083206001600160a01b038c1684529091529020548581101561112a5760405162461bcd60e51b815260040161043590611c04565b6000878152602081815260408083206001600160a01b038d8116855292528083208985039055908a16825281208054889290611167908490611a23565b909155505060408051888152602081018890526001600160a01b03808b16928c821692918816917fc3d58168c5ae7397731d063d5bbf3d657854427343f4c083240f7aacaa2d0f62910160405180910390a46111c7848a8a8a8a8a61121d565b505050505050505050565b6040805160018082528183019092526060916000919060208083019080368337019050509050828160008151811061120c5761120c611a85565b602090810291909101015292915050565b6001600160a01b0384163b15610df25760405163f23a6e6160e01b81526001600160a01b0385169063f23a6e61906112619089908990889088908890600401611c7c565b6020604051808303816000875af192505050801561129c575060408051601f3d908101601f1916820190925261129991810190611cc1565b60015b611348576112a8611cde565b806308c379a0036112e157506112bc611cfa565b806112c757506112e3565b8060405162461bcd60e51b815260040161043591906114f9565b505b60405162461bcd60e51b815260206004820152603460248201527f455243313135353a207472616e7366657220746f206e6f6e20455243313135356044820152732932b1b2b4bb32b91034b6b83632b6b2b73a32b960611b6064820152608401610435565b6001600160e01b0319811663f23a6e6160e01b14610c145760405162461bcd60e51b815260040161043590611d84565b6001600160a01b0384163b15610df25760405163bc197c8160e01b81526001600160a01b0385169063bc197c81906113bc9089908990889088908890600401611dcc565b6020604051808303816000875af19250505080156113f7575060408051601f3d908101601f191682019092526113f491810190611cc1565b60015b611403576112a8611cde565b6001600160e01b0319811663bc197c8160e01b14610c145760405162461bcd60e51b815260040161043590611d84565b80356001600160a01b038116811461144a57600080fd5b919050565b6000806040838503121561146257600080fd5b61146b83611433565b946020939093013593505050565b6001600160e01b031981168114610aac57600080fd5b6000602082840312156114a157600080fd5b81356114ac81611479565b9392505050565b6000815180845260005b818110156114d9576020818501810151868301820152016114bd565b506000602082860101526020601f19601f83011685010191505092915050565b6020815260006114ac60208301846114b3565b60006020828403121561151e57600080fd5b5035919050565b60008060006060848603121561153a57600080fd5b61154384611433565b95602085013595506040909401359392505050565b634e487b7160e01b600052604160045260246000fd5b601f8201601f1916810167ffffffffffffffff8111828210171561159457611594611558565b6040525050565b600067ffffffffffffffff8211156115b5576115b5611558565b5060051b60200190565b600082601f8301126115d057600080fd5b813560206115dd8261159b565b6040516115ea828261156e565b83815260059390931b850182019282810191508684111561160a57600080fd5b8286015b84811015611625578035835291830191830161160e565b509695505050505050565b600067ffffffffffffffff83111561164a5761164a611558565b604051611661601f8501601f19166020018261156e565b80915083815284848401111561167657600080fd5b83836020830137600060208583010152509392505050565b600082601f83011261169f57600080fd5b6114ac83833560208501611630565b600080600080600060a086880312156116c657600080fd5b6116cf86611433565b94506116dd60208701611433565b9350604086013567ffffffffffffffff808211156116fa57600080fd5b61170689838a016115bf565b9450606088013591508082111561171c57600080fd5b61172889838a016115bf565b9350608088013591508082111561173e57600080fd5b5061174b8882890161168e565b9150509295509295909350565b6000806040838503121561176b57600080fd5b823567ffffffffffffffff8082111561178357600080fd5b818501915085601f83011261179757600080fd5b813560206117a48261159b565b6040516117b1828261156e565b83815260059390931b85018201928281019150898411156117d157600080fd5b948201945b838610156117f6576117e786611433565b825294820194908201906117d6565b9650508601359250508082111561180c57600080fd5b50611819858286016115bf565b9150509250929050565b600081518084526020808501945080840160005b8381101561185357815187529582019590820190600101611837565b509495945050505050565b6020815260006114ac6020830184611823565b6000806040838503121561188457600080fd5b82359150602083013567ffffffffffffffff8111156118a257600080fd5b8301601f810185136118b357600080fd5b61181985823560208401611630565b600080604083850312156118d557600080fd5b6118de83611433565b9150602083013580151581146118f357600080fd5b809150509250929050565b6000806040838503121561191157600080fd5b50508035926020909101359150565b6000806040838503121561193357600080fd5b61193c83611433565b915061194a60208401611433565b90509250929050565b600080600080600060a0868803121561196b57600080fd5b61197486611433565b945061198260208701611433565b93506040860135925060608601359150608086013567ffffffffffffffff8111156119ac57600080fd5b61174b8882890161168e565b6000602082840312156119ca57600080fd5b6114ac82611433565b600181811c908216806119e757607f821691505b602082108103611a0757634e487b7160e01b600052602260045260246000fd5b50919050565b634e487b7160e01b600052601160045260246000fd5b8082018082111561046157610461611a0d565b6020808252602f908201527f455243313135353a2063616c6c6572206973206e6f7420746f6b656e206f776e60408201526e195c881b9bdc88185c1c1c9bdd9959608a1b606082015260800190565b634e487b7160e01b600052603260045260246000fd5b600060018201611aad57611aad611a0d565b5060010190565b601f821115611afa57600081815260208120601f850160051c81016020861015611adb5750805b601f850160051c820191505b81811015610df257828155600101611ae7565b505050565b815167ffffffffffffffff811115611b1957611b19611558565b611b2d81611b2784546119d3565b84611ab4565b602080601f831160018114611b625760008415611b4a5750858301515b600019600386901b1c1916600185901b178555610df2565b600085815260208120601f198616915b82811015611b9157888601518255948401946001909101908401611b72565b5085821015611baf5787850151600019600388901b60f8161c191681555b5050505050600190811b01905550565b60208082526025908201527f455243313135353a207472616e7366657220746f20746865207a65726f206164604082015264647265737360d81b606082015260800190565b6020808252602a908201527f455243313135353a20696e73756666696369656e742062616c616e636520666f60408201526939103a3930b739b332b960b11b606082015260800190565b604081526000611c616040830185611823565b8281036020840152611c738185611823565b95945050505050565b6001600160a01b03868116825285166020820152604081018490526060810183905260a060808201819052600090611cb6908301846114b3565b979650505050505050565b600060208284031215611cd357600080fd5b81516114ac81611479565b600060033d1115611cf75760046000803e5060005160e01c5b90565b600060443d1015611d085790565b6040516003193d81016004833e81513d67ffffffffffffffff8160248401118184111715611d3857505050505090565b8285019150815181811115611d505750505050505090565b843d8701016020828501011115611d6a5750505050505090565b611d796020828601018761156e565b509095945050505050565b60208082526028908201527f455243313135353a204552433131353552656365697665722072656a656374656040820152676420746f6b656e7360c01b606082015260800190565b6001600160a01b0386811682528516602082015260a060408201819052600090611df890830186611823565b8281036060840152611e0a8186611823565b90508281036080840152611e1e81856114b3565b9897505050505050505056fea26469706673582212203553fddf7062b329b005e44bda639f7c38fdc60c2b6f04be2629a33a5e023f7f64736f6c63430008110033",
  "devdoc": {
    "kind": "dev",
    "methods": {
      "balanceOf(address,uint256)": {
        "details": "See {IERC1155-balanceOf}. Requirements: - `account` cannot be the zero address."
      },
      "balanceOfBatch(address[],uint256[])": {
        "details": "See {IERC1155-balanceOfBatch}. Requirements: - `accounts` and `ids` must have the same length."
      },
      "isApprovedForAll(address,address)": {
        "details": "See {IERC1155-isApprovedForAll}."
      },
      "owner()": {
        "details": "Returns the address of the current owner."
      },
      "renounceOwnership()": {
        "details": "Leaves the contract without owner. It will not be possible to call `onlyOwner` functions anymore. Can only be called by the current owner. NOTE: Renouncing ownership will leave the contract without an owner, thereby removing any functionality that is only available to the owner."
      },
      "safeBatchTransferFrom(address,address,uint256[],uint256[],bytes)": {
        "details": "See {IERC1155-safeBatchTransferFrom}."
      },
      "safeTransferFrom(address,address,uint256,uint256,bytes)": {
        "details": "See {IERC1155-safeTransferFrom}."
      },
      "setApprovalForAll(address,bool)": {
        "details": "See {IERC1155-setApprovalForAll}."
      },
      "supportsInterface(bytes4)": {
        "details": "See {IERC165-supportsInterface}."
      },
      "transferOwnership(address)": {
        "details": "Transfers ownership of the contract to a new account (`newOwner`). Can only be called by the current owner."
      }
    },
    "version": 1
  },
  "userdoc": {
    "kind": "user",
    "methods": {},
    "version": 1
  },
  "storageLayout": {
    "storage": [
      {
        "astId": 178,
        "contract": "contracts/UglyUrbanGoblin.sol:UglyUrbanGoblin",
        "label": "_balances",
        "offset": 0,
        "slot": "0",
        "type": "t_mapping(t_uint256,t_mapping(t_address,t_uint256))"
      },
      {
        "astId": 184,
        "contract": "contracts/UglyUrbanGoblin.sol:UglyUrbanGoblin",
        "label": "_operatorApprovals",
        "offset": 0,
        "slot": "1",
        "type": "t_mapping(t_address,t_mapping(t_address,t_bool))"
      },
      {
        "astId": 186,
        "contract": "contracts/UglyUrbanGoblin.sol:UglyUrbanGoblin",
        "label": "_uri",
        "offset": 0,
        "slot": "2",
        "type": "t_string_storage"
      },
      {
        "astId": 7,
        "contract": "contracts/UglyUrbanGoblin.sol:UglyUrbanGoblin",
        "label": "_owner",
        "offset": 0,
        "slot": "3",
        "type": "t_address"
      },
      {
        "astId": 123,
        "contract": "contracts/UglyUrbanGoblin.sol:UglyUrbanGoblin",
        "label": "_status",
        "offset": 0,
        "slot": "4",
        "type": "t_uint256"
      },
      {
        "astId": 1923,
        "contract": "contracts/UglyUrbanGoblin.sol:UglyUrbanGoblin",
        "label": "maxTx",
        "offset": 0,
        "slot": "5",
        "type": "t_uint8"
      },
      {
        "astId": 1926,
        "contract": "contracts/UglyUrbanGoblin.sol:UglyUrbanGoblin",
        "label": "maxPerAccount",
        "offset": 1,
        "slot": "5",
        "type": "t_uint8"
      },
      {
        "astId": 1929,
        "contract": "contracts/UglyUrbanGoblin.sol:UglyUrbanGoblin",
        "label": "maxSupply",
        "offset": 2,
        "slot": "5",
        "type": "t_uint16"
      },
      {
        "astId": 1931,
        "contract": "contracts/UglyUrbanGoblin.sol:UglyUrbanGoblin",
        "label": "artPrice",
        "offset": 0,
        "slot": "6",
        "type": "t_uint256"
      },
      {
        "astId": 1933,
        "contract": "contracts/UglyUrbanGoblin.sol:UglyUrbanGoblin",
        "label": "name",
        "offset": 0,
        "slot": "7",
        "type": "t_string_storage"
      },
      {
        "astId": 1935,
        "contract": "contracts/UglyUrbanGoblin.sol:UglyUrbanGoblin",
        "label": "symbol",
        "offset": 0,
        "slot": "8",
        "type": "t_string_storage"
      },
      {
        "astId": 1939,
        "contract": "contracts/UglyUrbanGoblin.sol:UglyUrbanGoblin",
        "label": "tokenURI",
        "offset": 0,
        "slot": "9",
        "type": "t_mapping(t_uint256,t_string_storage)"
      }
    ],
    "types": {
      "t_address": {
        "encoding": "inplace",
        "label": "address",
        "numberOfBytes": "20"
      },
      "t_bool": {
        "encoding": "inplace",
        "label": "bool",
        "numberOfBytes": "1"
      },
      "t_mapping(t_address,t_bool)": {
        "encoding": "mapping",
        "key": "t_address",
        "label": "mapping(address => bool)",
        "numberOfBytes": "32",
        "value": "t_bool"
      },
      "t_mapping(t_address,t_mapping(t_address,t_bool))": {
        "encoding": "mapping",
        "key": "t_address",
        "label": "mapping(address => mapping(address => bool))",
        "numberOfBytes": "32",
        "value": "t_mapping(t_address,t_bool)"
      },
      "t_mapping(t_address,t_uint256)": {
        "encoding": "mapping",
        "key": "t_address",
        "label": "mapping(address => uint256)",
        "numberOfBytes": "32",
        "value": "t_uint256"
      },
      "t_mapping(t_uint256,t_mapping(t_address,t_uint256))": {
        "encoding": "mapping",
        "key": "t_uint256",
        "label": "mapping(uint256 => mapping(address => uint256))",
        "numberOfBytes": "32",
        "value": "t_mapping(t_address,t_uint256)"
      },
      "t_mapping(t_uint256,t_string_storage)": {
        "encoding": "mapping",
        "key": "t_uint256",
        "label": "mapping(uint256 => string)",
        "numberOfBytes": "32",
        "value": "t_string_storage"
      },
      "t_string_storage": {
        "encoding": "bytes",
        "label": "string",
        "numberOfBytes": "32"
      },
      "t_uint16": {
        "encoding": "inplace",
        "label": "uint16",
        "numberOfBytes": "2"
      },
      "t_uint256": {
        "encoding": "inplace",
        "label": "uint256",
        "numberOfBytes": "32"
      },
      "t_uint8": {
        "encoding": "inplace",
        "label": "uint8",
        "numberOfBytes": "1"
      }
    }
  }
}