{
  "address": "0xe7f1725E7734CE288F8367e1Bb143E90bb3F0512",
  "abi": [
    {
      "anonymous": false,
      "inputs": [
        {
          "indexed": false,
          "internalType": "address",
          "name": "previousAdmin",
          "type": "address"
        },
        {
          "indexed": false,
          "internalType": "address",
          "name": "newAdmin",
          "type": "address"
        }
      ],
      "name": "AdminChanged",
      "type": "event"
    },
    {
      "anonymous": false,
      "inputs": [
        {
          "indexed": true,
          "internalType": "address",
          "name": "account",
          "type": "address"
        },
        {
          "indexed": true,
          "internalType": "address",
          "name": "operator",
          "type": "address"
        },
        {
          "indexed": false,
          "internalType": "bool",
          "name": "approved",
          "type": "bool"
        }
      ],
      "name": "ApprovalForAll",
      "type": "event"
    },
    {
      "anonymous": false,
      "inputs": [
        {
          "indexed": true,
          "internalType": "address",
          "name": "beacon",
          "type": "address"
        }
      ],
      "name": "BeaconUpgraded",
      "type": "event"
    },
    {
      "anonymous": false,
      "inputs": [
        {
          "indexed": false,
          "internalType": "uint8",
          "name": "version",
          "type": "uint8"
        }
      ],
      "name": "Initialized",
      "type": "event"
    },
    {
      "anonymous": false,
      "inputs": [
        {
          "indexed": true,
          "internalType": "address",
          "name": "previousOwner",
          "type": "address"
        },
        {
          "indexed": true,
          "internalType": "address",
          "name": "newOwner",
          "type": "address"
        }
      ],
      "name": "OwnershipTransferred",
      "type": "event"
    },
    {
      "anonymous": false,
      "inputs": [
        {
          "indexed": true,
          "internalType": "address",
          "name": "operator",
          "type": "address"
        },
        {
          "indexed": true,
          "internalType": "address",
          "name": "from",
          "type": "address"
        },
        {
          "indexed": true,
          "internalType": "address",
          "name": "to",
          "type": "address"
        },
        {
          "indexed": false,
          "internalType": "uint256[]",
          "name": "ids",
          "type": "uint256[]"
        },
        {
          "indexed": false,
          "internalType": "uint256[]",
          "name": "values",
          "type": "uint256[]"
        }
      ],
      "name": "TransferBatch",
      "type": "event"
    },
    {
      "anonymous": false,
      "inputs": [
        {
          "indexed": true,
          "internalType": "address",
          "name": "operator",
          "type": "address"
        },
        {
          "indexed": true,
          "internalType": "address",
          "name": "from",
          "type": "address"
        },
        {
          "indexed": true,
          "internalType": "address",
          "name": "to",
          "type": "address"
        },
        {
          "indexed": false,
          "internalType": "uint256",
          "name": "id",
          "type": "uint256"
        },
        {
          "indexed": false,
          "internalType": "uint256",
          "name": "value",
          "type": "uint256"
        }
      ],
      "name": "TransferSingle",
      "type": "event"
    },
    {
      "anonymous": false,
      "inputs": [
        {
          "indexed": false,
          "internalType": "string",
          "name": "value",
          "type": "string"
        },
        {
          "indexed": true,
          "internalType": "uint256",
          "name": "id",
          "type": "uint256"
        }
      ],
      "name": "URI",
      "type": "event"
    },
    {
      "anonymous": false,
      "inputs": [
        {
          "indexed": true,
          "internalType": "address",
          "name": "implementation",
          "type": "address"
        }
      ],
      "name": "Upgraded",
      "type": "event"
    },
    {
      "inputs": [
        {
          "internalType": "uint256",
          "name": "artPrice_",
          "type": "uint256"
        },
        {
          "internalType": "string",
          "name": "name_",
          "type": "string"
        },
        {
          "internalType": "string",
          "name": "symbol_",
          "type": "string"
        },
        {
          "internalType": "address",
          "name": "_payment",
          "type": "address"
        }
      ],
      "name": "_initializableNFT",
      "outputs": [],
      "stateMutability": "nonpayable",
      "type": "function"
    },
    {
      "inputs": [
        {
          "internalType": "address",
          "name": "account",
          "type": "address"
        },
        {
          "internalType": "uint256",
          "name": "id",
          "type": "uint256"
        }
      ],
      "name": "balanceOf",
      "outputs": [
        {
          "internalType": "uint256",
          "name": "",
          "type": "uint256"
        }
      ],
      "stateMutability": "view",
      "type": "function"
    },
    {
      "inputs": [
        {
          "internalType": "address[]",
          "name": "accounts",
          "type": "address[]"
        },
        {
          "internalType": "uint256[]",
          "name": "ids",
          "type": "uint256[]"
        }
      ],
      "name": "balanceOfBatch",
      "outputs": [
        {
          "internalType": "uint256[]",
          "name": "",
          "type": "uint256[]"
        }
      ],
      "stateMutability": "view",
      "type": "function"
    },
    {
      "inputs": [
        {
          "internalType": "uint256",
          "name": "_id",
          "type": "uint256"
        },
        {
          "internalType": "uint256",
          "name": "_amount",
          "type": "uint256"
        }
      ],
      "name": "burn",
      "outputs": [],
      "stateMutability": "nonpayable",
      "type": "function"
    },
    {
      "inputs": [
        {
          "internalType": "uint256[]",
          "name": "_ids",
          "type": "uint256[]"
        },
        {
          "internalType": "uint256[]",
          "name": "_amounts",
          "type": "uint256[]"
        }
      ],
      "name": "burnBatch",
      "outputs": [],
      "stateMutability": "nonpayable",
      "type": "function"
    },
    {
      "inputs": [],
      "name": "getArtPrice",
      "outputs": [
        {
          "internalType": "uint256",
          "name": "",
          "type": "uint256"
        }
      ],
      "stateMutability": "view",
      "type": "function"
    },
    {
      "inputs": [
        {
          "internalType": "address",
          "name": "account",
          "type": "address"
        },
        {
          "internalType": "address",
          "name": "operator",
          "type": "address"
        }
      ],
      "name": "isApprovedForAll",
      "outputs": [
        {
          "internalType": "bool",
          "name": "",
          "type": "bool"
        }
      ],
      "stateMutability": "view",
      "type": "function"
    },
    {
      "inputs": [
        {
          "internalType": "address",
          "name": "_to",
          "type": "address"
        },
        {
          "internalType": "uint256",
          "name": "id",
          "type": "uint256"
        },
        {
          "internalType": "uint256",
          "name": "amount",
          "type": "uint256"
        }
      ],
      "name": "mint",
      "outputs": [],
      "stateMutability": "payable",
      "type": "function"
    },
    {
      "inputs": [
        {
          "internalType": "address",
          "name": "_to",
          "type": "address"
        },
        {
          "internalType": "uint256[]",
          "name": "ids",
          "type": "uint256[]"
        },
        {
          "internalType": "uint256[]",
          "name": "amounts",
          "type": "uint256[]"
        }
      ],
      "name": "mintBatch",
      "outputs": [],
      "stateMutability": "nonpayable",
      "type": "function"
    },
    {
      "inputs": [],
      "name": "owner",
      "outputs": [
        {
          "internalType": "address",
          "name": "",
          "type": "address"
        }
      ],
      "stateMutability": "view",
      "type": "function"
    },
    {
      "inputs": [],
      "name": "proxiableUUID",
      "outputs": [
        {
          "internalType": "bytes32",
          "name": "",
          "type": "bytes32"
        }
      ],
      "stateMutability": "view",
      "type": "function"
    },
    {
      "inputs": [],
      "name": "renounceOwnership",
      "outputs": [],
      "stateMutability": "nonpayable",
      "type": "function"
    },
    {
      "inputs": [
        {
          "internalType": "address",
          "name": "from",
          "type": "address"
        },
        {
          "internalType": "address",
          "name": "to",
          "type": "address"
        },
        {
          "internalType": "uint256[]",
          "name": "ids",
          "type": "uint256[]"
        },
        {
          "internalType": "uint256[]",
          "name": "amounts",
          "type": "uint256[]"
        },
        {
          "internalType": "bytes",
          "name": "data",
          "type": "bytes"
        }
      ],
      "name": "safeBatchTransferFrom",
      "outputs": [],
      "stateMutability": "nonpayable",
      "type": "function"
    },
    {
      "inputs": [
        {
          "internalType": "address",
          "name": "from",
          "type": "address"
        },
        {
          "internalType": "address",
          "name": "to",
          "type": "address"
        },
        {
          "internalType": "uint256",
          "name": "id",
          "type": "uint256"
        },
        {
          "internalType": "uint256",
          "name": "amount",
          "type": "uint256"
        },
        {
          "internalType": "bytes",
          "name": "data",
          "type": "bytes"
        }
      ],
      "name": "safeTransferFrom",
      "outputs": [],
      "stateMutability": "nonpayable",
      "type": "function"
    },
    {
      "inputs": [
        {
          "internalType": "address",
          "name": "operator",
          "type": "address"
        },
        {
          "internalType": "bool",
          "name": "approved",
          "type": "bool"
        }
      ],
      "name": "setApprovalForAll",
      "outputs": [],
      "stateMutability": "nonpayable",
      "type": "function"
    },
    {
      "inputs": [
        {
          "internalType": "uint256",
          "name": "_id",
          "type": "uint256"
        },
        {
          "internalType": "string",
          "name": "_uri",
          "type": "string"
        }
      ],
      "name": "setURI",
      "outputs": [],
      "stateMutability": "nonpayable",
      "type": "function"
    },
    {
      "inputs": [
        {
          "internalType": "bytes4",
          "name": "interfaceId",
          "type": "bytes4"
        }
      ],
      "name": "supportsInterface",
      "outputs": [
        {
          "internalType": "bool",
          "name": "",
          "type": "bool"
        }
      ],
      "stateMutability": "view",
      "type": "function"
    },
    {
      "inputs": [
        {
          "internalType": "uint256",
          "name": "id_",
          "type": "uint256"
        }
      ],
      "name": "totalArtSupply",
      "outputs": [
        {
          "internalType": "uint256",
          "name": "",
          "type": "uint256"
        }
      ],
      "stateMutability": "view",
      "type": "function"
    },
    {
      "inputs": [
        {
          "internalType": "address",
          "name": "newOwner",
          "type": "address"
        }
      ],
      "name": "transferOwnership",
      "outputs": [],
      "stateMutability": "nonpayable",
      "type": "function"
    },
    {
      "inputs": [
        {
          "internalType": "uint256",
          "name": "_newPrice",
          "type": "uint256"
        }
      ],
      "name": "updateArtPrice",
      "outputs": [],
      "stateMutability": "nonpayable",
      "type": "function"
    },
    {
      "inputs": [
        {
          "internalType": "address",
          "name": "newImplementation",
          "type": "address"
        }
      ],
      "name": "upgradeTo",
      "outputs": [],
      "stateMutability": "nonpayable",
      "type": "function"
    },
    {
      "inputs": [
        {
          "internalType": "address",
          "name": "newImplementation",
          "type": "address"
        },
        {
          "internalType": "bytes",
          "name": "data",
          "type": "bytes"
        }
      ],
      "name": "upgradeToAndCall",
      "outputs": [],
      "stateMutability": "payable",
      "type": "function"
    },
    {
      "inputs": [
        {
          "internalType": "uint256",
          "name": "_id",
          "type": "uint256"
        }
      ],
      "name": "uri",
      "outputs": [
        {
          "internalType": "string",
          "name": "",
          "type": "string"
        }
      ],
      "stateMutability": "view",
      "type": "function"
    }
  ],
  "transactionHash": "0xe0877d70e82b9d4c16cc8ebaf974882ac2139e51e8afe458d71ae13e0ecd26b9",
  "args": [],
  "numDeployments": 1,
  "solcInputHash": "9fc3fa9d33cb32848d3f4c264a5b6188",
  "bytecode": "0x60a06040523060805234801561001457600080fd5b5060805161302d61004c600039600081816109d801528181610a1801528181610be001528181610c200152610cb3015261302d6000f3fe60806040526004361061013e5760003560e01c80636cd2280f116100b6578063b390c0ab1161006f578063b390c0ab1461037a578063d81d0a151461039a578063e985e9c5146103ba578063f242432a14610403578063f2fde38b14610423578063f74610f91461044357600080fd5b80636cd2280f146102af578063715018a6146102dd57806383ca4b6f146102f2578063862440e2146103125780638da5cb5b14610332578063a22cb4651461035a57600080fd5b80632e204d47116101085780632e204d47146101fa5780632eb2c2d61461021a5780633659cfe61461023a5780634e1273f41461025a5780634f1ef2861461028757806352d1902d1461029a57600080fd5b806216c62014610143578062fdd58e1461016857806301ffc9a7146101885780630e89341c146101b8578063156e29f6146101e5575b600080fd5b34801561014f57600080fd5b5061015f545b6040519081526020015b60405180910390f35b34801561017457600080fd5b50610155610183366004612256565b610463565b34801561019457600080fd5b506101a86101a3366004612296565b6104fe565b604051901515815260200161015f565b3480156101c457600080fd5b506101d86101d33660046122b3565b61054e565b60405161015f919061231c565b6101f86101f336600461232f565b6105f8565b005b34801561020657600080fd5b506101f8610215366004612417565b61080e565b34801561022657600080fd5b506101f8610235366004612528565b610989565b34801561024657600080fd5b506101f86102553660046125d1565b6109ce565b34801561026657600080fd5b5061027a6102753660046125ec565b610aad565b60405161015f91906126f1565b6101f8610295366004612704565b610bd6565b3480156102a657600080fd5b50610155610ca6565b3480156102bb57600080fd5b506101556102ca3660046122b3565b6000908152610163602052604090205490565b3480156102e957600080fd5b506101f8610d5a565b3480156102fe57600080fd5b506101f861030d366004612747565b610d6e565b34801561031e57600080fd5b506101f861032d366004612793565b610e00565b34801561033e57600080fd5b5060fb546040516001600160a01b03909116815260200161015f565b34801561036657600080fd5b506101f86103753660046127c3565b610e5e565b34801561038657600080fd5b506101f86103953660046127ff565b610e69565b3480156103a657600080fd5b506101f86103b5366004612821565b610ecd565b3480156103c657600080fd5b506101a86103d5366004612894565b6001600160a01b03918216600090815260ca6020908152604080832093909416825291909152205460ff1690565b34801561040f57600080fd5b506101f861041e3660046128c7565b6110d3565b34801561042f57600080fd5b506101f861043e3660046125d1565b611118565b34801561044f57600080fd5b506101f861045e3660046122b3565b61118e565b60006001600160a01b0383166104d35760405162461bcd60e51b815260206004820152602a60248201527f455243313135353a2061646472657373207a65726f206973206e6f742061207660448201526930b634b21037bbb732b960b11b60648201526084015b60405180910390fd5b50600081815260c9602090815260408083206001600160a01b03861684529091529020545b92915050565b60006001600160e01b03198216636cdb3d1360e11b148061052f57506001600160e01b031982166303a24d0760e21b145b806104f857506301ffc9a760e01b6001600160e01b03198316146104f8565b606061055861119c565b60008281526101646020526040902080546105729061292b565b80601f016020809104026020016040519081016040528092919081815260200182805461059e9061292b565b80156105eb5780601f106105c0576101008083540402835291602001916105eb565b820191906000526020600020905b8154815290600101906020018083116105ce57829003601f168201915b505050505090505b919050565b600261012d540361064b5760405162461bcd60e51b815260206004820152601f60248201527f5265656e7472616e637947756172643a207265656e7472616e742063616c6c0060448201526064016104ca565b600261012d558061069e5760405162461bcd60e51b815260206004820152601a60248201527f4d696e743a20616d6f756e742f54782070726f6869626974656400000000000060448201526064016104ca565b6065816106ab8585610463565b6106b5919061297b565b106107025760405162461bcd60e51b815260206004820152601760248201527f4d696e743a20537570706c792f5478207265616368656400000000000000000060448201526064016104ca565b600082815261016360205260409020546103e8116107625760405162461bcd60e51b815260206004820152601c60248201527f4d696e743a20417274206d617820737570706c7920726561636865640000000060448201526064016104ca565b8061015f54610771919061298e565b3410156107b95760405162461bcd60e51b81526020600482015260166024820152754d696e743a204e65656473206d6f72652066756e647360501b60448201526064016104ca565b60008281526101636020526040812080548392906107d890849061297b565b925050819055506107fa838383604051806020016040528060008152506111f6565b610803346112d2565b5050600161012d5550565b600054610100900460ff161580801561082e5750600054600160ff909116105b806108485750303b158015610848575060005460ff166001145b6108ab5760405162461bcd60e51b815260206004820152602e60248201527f496e697469616c697a61626c653a20636f6e747261637420697320616c72656160448201526d191e481a5b9a5d1a585b1a5e995960921b60648201526084016104ca565b6000805460ff1916600117905580156108ce576000805461ff0019166101001790555b61015f8590556101606108e185826129eb565b506101616108ef84826129eb565b5061016280546001600160a01b0319166001600160a01b038416179055610914611305565b61091c611334565b61092461135b565b61093c6040518060200160405280600081525061138a565b8015610982576000805461ff0019169055604051600181527f7f26b83ff96e1f2b6a682f133852f6798a09c465da95921460cefb38474024989060200160405180910390a15b5050505050565b6001600160a01b0385163314806109a557506109a585336103d5565b6109c15760405162461bcd60e51b81526004016104ca90612aaa565b61098285858585856113ba565b6001600160a01b037f0000000000000000000000000000000000000000000000000000000000000000163003610a165760405162461bcd60e51b81526004016104ca90612af9565b7f00000000000000000000000000000000000000000000000000000000000000006001600160a01b0316610a5f600080516020612fb1833981519152546001600160a01b031690565b6001600160a01b031614610a855760405162461bcd60e51b81526004016104ca90612b45565b610a8e81611559565b60408051600080825260208201909252610aaa91839190611561565b50565b60608151835114610b125760405162461bcd60e51b815260206004820152602960248201527f455243313135353a206163636f756e747320616e6420696473206c656e677468604482015268040dad2e6dac2e8c6d60bb1b60648201526084016104ca565b600083516001600160401b03811115610b2d57610b2d612362565b604051908082528060200260200182016040528015610b56578160200160208202803683370190505b50905060005b8451811015610bce57610ba1858281518110610b7a57610b7a612b91565b6020026020010151858381518110610b9457610b94612b91565b6020026020010151610463565b828281518110610bb357610bb3612b91565b6020908102919091010152610bc781612ba7565b9050610b5c565b509392505050565b6001600160a01b037f0000000000000000000000000000000000000000000000000000000000000000163003610c1e5760405162461bcd60e51b81526004016104ca90612af9565b7f00000000000000000000000000000000000000000000000000000000000000006001600160a01b0316610c67600080516020612fb1833981519152546001600160a01b031690565b6001600160a01b031614610c8d5760405162461bcd60e51b81526004016104ca90612b45565b610c9682611559565b610ca282826001611561565b5050565b6000306001600160a01b037f00000000000000000000000000000000000000000000000000000000000000001614610d465760405162461bcd60e51b815260206004820152603860248201527f555550535570677261646561626c653a206d757374206e6f742062652063616c60448201527f6c6564207468726f7567682064656c656761746563616c6c000000000000000060648201526084016104ca565b50600080516020612fb18339815191525b90565b610d6261119c565b610d6c60006116cc565b565b60005b82518110610dfb576000610d9133858481518110610b9457610b94612b91565b11610dde5760405162461bcd60e51b815260206004820152601e60248201527f42415443485f4255524e20596f75277265206e6f7420616e204f776e6572000060448201526064016104ca565b610de933848461171e565b80610df381612ba7565b915050610d71565b505050565b610e0861119c565b600082815261016460205260409020610e2182826129eb565b50817f6bb7ff708619ba0610cba295a58592e0451dee2622938c8755667688daf3529b82604051610e52919061231c565b60405180910390a25050565b610ca23383836118ad565b6000610e753384610463565b11610ec25760405162461bcd60e51b815260206004820152601860248201527f4255524e20596f75277265206e6f7420616e204f776e6572000000000000000060448201526064016104ca565b610ca233838361198d565b610ed561119c565b60005b82518110156110b7578251825114610f455760405162461bcd60e51b815260206004820152602a60248201527f4d696e7442617463683a20616d6f756e747320616e6420696473206c656e67746044820152690d040dad2e6dac2e8c6d60b31b60648201526084016104ca565b6000828281518110610f5957610f59612b91565b6020026020010151118015610f8757506065828281518110610f7d57610f7d612b91565b6020026020010151105b610fd35760405162461bcd60e51b815260206004820152601f60248201527f4d696e7442617463683a20616d6f756e742f54782070726f686962697465640060448201526064016104ca565b6000838281518110610fe757610fe7612b91565b602002602001015190506103e8610163600083815260200190815260200160002054106110605760405162461bcd60e51b815260206004820152602160248201527f4d696e7442617463683a20417274206d617820737570706c79207265616368656044820152601960fa1b60648201526084016104ca565b82828151811061107257611072612b91565b60200260200101516101636000838152602001908152602001600020600082825461109d919061297b565b909155508291506110af905081612ba7565b915050610ed8565b50610dfb83838360405180602001604052806000815250611a94565b6001600160a01b0385163314806110ef57506110ef85336103d5565b61110b5760405162461bcd60e51b81526004016104ca90612aaa565b6109828585858585611be0565b61112061119c565b6001600160a01b0381166111855760405162461bcd60e51b815260206004820152602660248201527f4f776e61626c653a206e6577206f776e657220697320746865207a65726f206160448201526564647265737360d01b60648201526084016104ca565b610aaa816116cc565b61119661119c565b61015f55565b60fb546001600160a01b03163314610d6c5760405162461bcd60e51b815260206004820181905260248201527f4f776e61626c653a2063616c6c6572206973206e6f7420746865206f776e657260448201526064016104ca565b6001600160a01b03841661121c5760405162461bcd60e51b81526004016104ca90612bc0565b33600061122885611d0e565b9050600061123585611d0e565b9050600086815260c9602090815260408083206001600160a01b038b1684529091528120805487929061126990849061297b565b909155505060408051878152602081018790526001600160a01b03808a1692600092918716917fc3d58168c5ae7397731d063d5bbf3d657854427343f4c083240f7aacaa2d0f62910160405180910390a46112c983600089898989611d59565b50505050505050565b610162546040516001600160a01b039091169082156108fc029083906000818181858888f19350505050610aaa57600080fd5b600054610100900460ff1661132c5760405162461bcd60e51b81526004016104ca90612c01565b610d6c611eb4565b600054610100900460ff16610d6c5760405162461bcd60e51b81526004016104ca90612c01565b600054610100900460ff166113825760405162461bcd60e51b81526004016104ca90612c01565b610d6c611ee4565b600054610100900460ff166113b15760405162461bcd60e51b81526004016104ca90612c01565b610aaa81611f13565b81518351146113db5760405162461bcd60e51b81526004016104ca90612c4c565b6001600160a01b0384166114015760405162461bcd60e51b81526004016104ca90612c94565b3360005b84518110156114eb57600085828151811061142257611422612b91565b60200260200101519050600085838151811061144057611440612b91565b602090810291909101810151600084815260c9835260408082206001600160a01b038e1683529093529190912054909150818110156114915760405162461bcd60e51b81526004016104ca90612cd9565b600083815260c9602090815260408083206001600160a01b038e8116855292528083208585039055908b168252812080548492906114d090849061297b565b92505081905550505050806114e490612ba7565b9050611405565b50846001600160a01b0316866001600160a01b0316826001600160a01b03167f4a39dc06d4c0dbc64b70af90fd698a233a518aa5d07e595d983b8c0526c8f7fb878760405161153b929190612d23565b60405180910390a4611551818787878787611f43565b505050505050565b610aaa61119c565b7f4910fdfa16fed3260ed0e7147f7cc6da11a60208b5b9406d12a635614ffd91435460ff161561159457610dfb83611ffe565b826001600160a01b03166352d1902d6040518163ffffffff1660e01b8152600401602060405180830381865afa9250505080156115ee575060408051601f3d908101601f191682019092526115eb91810190612d48565b60015b6116515760405162461bcd60e51b815260206004820152602e60248201527f45524331393637557067726164653a206e657720696d706c656d656e7461746960448201526d6f6e206973206e6f74205555505360901b60648201526084016104ca565b600080516020612fb183398151915281146116c05760405162461bcd60e51b815260206004820152602960248201527f45524331393637557067726164653a20756e737570706f727465642070726f786044820152681a58589b195555525160ba1b60648201526084016104ca565b50610dfb83838361209a565b60fb80546001600160a01b038381166001600160a01b0319831681179093556040519116919082907f8be0079c531659141344cd1fd0a4f28419497f9722a3daafe3b4186f6b6457e090600090a35050565b6001600160a01b0383166117445760405162461bcd60e51b81526004016104ca90612d61565b80518251146117655760405162461bcd60e51b81526004016104ca90612c4c565b604080516020810190915260009081905233905b835181101561183e57600084828151811061179657611796612b91565b6020026020010151905060008483815181106117b4576117b4612b91565b602090810291909101810151600084815260c9835260408082206001600160a01b038c1683529093529190912054909150818110156118055760405162461bcd60e51b81526004016104ca90612da4565b600092835260c9602090815260408085206001600160a01b038b168652909152909220910390558061183681612ba7565b915050611779565b5060006001600160a01b0316846001600160a01b0316826001600160a01b03167f4a39dc06d4c0dbc64b70af90fd698a233a518aa5d07e595d983b8c0526c8f7fb868660405161188f929190612d23565b60405180910390a46040805160208101909152600090525b50505050565b816001600160a01b0316836001600160a01b0316036119205760405162461bcd60e51b815260206004820152602960248201527f455243313135353a2073657474696e6720617070726f76616c20737461747573604482015268103337b91039b2b63360b91b60648201526084016104ca565b6001600160a01b03838116600081815260ca6020908152604080832094871680845294825291829020805460ff191686151590811790915591519182527f17307eab39ab6107e8899845ad3d59bd9653f200f220920489ca2b5937696c31910160405180910390a3505050565b6001600160a01b0383166119b35760405162461bcd60e51b81526004016104ca90612d61565b3360006119bf84611d0e565b905060006119cc84611d0e565b604080516020808201835260009182905288825260c981528282206001600160a01b038b1683529052205490915084811015611a1a5760405162461bcd60e51b81526004016104ca90612da4565b600086815260c9602090815260408083206001600160a01b038b81168086529184528285208a8703905582518b81529384018a90529092908816917fc3d58168c5ae7397731d063d5bbf3d657854427343f4c083240f7aacaa2d0f62910160405180910390a46040805160208101909152600090526112c9565b6001600160a01b038416611aba5760405162461bcd60e51b81526004016104ca90612bc0565b8151835114611adb5760405162461bcd60e51b81526004016104ca90612c4c565b3360005b8451811015611b7857838181518110611afa57611afa612b91565b602002602001015160c96000878481518110611b1857611b18612b91565b602002602001015181526020019081526020016000206000886001600160a01b03166001600160a01b031681526020019081526020016000206000828254611b60919061297b565b90915550819050611b7081612ba7565b915050611adf565b50846001600160a01b031660006001600160a01b0316826001600160a01b03167f4a39dc06d4c0dbc64b70af90fd698a233a518aa5d07e595d983b8c0526c8f7fb8787604051611bc9929190612d23565b60405180910390a461098281600087878787611f43565b6001600160a01b038416611c065760405162461bcd60e51b81526004016104ca90612c94565b336000611c1285611d0e565b90506000611c1f85611d0e565b9050600086815260c9602090815260408083206001600160a01b038c16845290915290205485811015611c645760405162461bcd60e51b81526004016104ca90612cd9565b600087815260c9602090815260408083206001600160a01b038d8116855292528083208985039055908a16825281208054889290611ca390849061297b565b909155505060408051888152602081018890526001600160a01b03808b16928c821692918816917fc3d58168c5ae7397731d063d5bbf3d657854427343f4c083240f7aacaa2d0f62910160405180910390a4611d03848a8a8a8a8a611d59565b505050505050505050565b60408051600180825281830190925260609160009190602080830190803683370190505090508281600081518110611d4857611d48612b91565b602090810291909101015292915050565b6001600160a01b0384163b156115515760405163f23a6e6160e01b81526001600160a01b0385169063f23a6e6190611d9d9089908990889088908890600401612de8565b6020604051808303816000875af1925050508015611dd8575060408051601f3d908101601f19168201909252611dd591810190612e2d565b60015b611e8457611de4612e4a565b806308c379a003611e1d5750611df8612e65565b80611e035750611e1f565b8060405162461bcd60e51b81526004016104ca919061231c565b505b60405162461bcd60e51b815260206004820152603460248201527f455243313135353a207472616e7366657220746f206e6f6e20455243313135356044820152732932b1b2b4bb32b91034b6b83632b6b2b73a32b960611b60648201526084016104ca565b6001600160e01b0319811663f23a6e6160e01b146112c95760405162461bcd60e51b81526004016104ca90612eee565b600054610100900460ff16611edb5760405162461bcd60e51b81526004016104ca90612c01565b610d6c336116cc565b600054610100900460ff16611f0b5760405162461bcd60e51b81526004016104ca90612c01565b600161012d55565b600054610100900460ff16611f3a5760405162461bcd60e51b81526004016104ca90612c01565b610aaa816120bf565b6001600160a01b0384163b156115515760405163bc197c8160e01b81526001600160a01b0385169063bc197c8190611f879089908990889088908890600401612f36565b6020604051808303816000875af1925050508015611fc2575060408051601f3d908101601f19168201909252611fbf91810190612e2d565b60015b611fce57611de4612e4a565b6001600160e01b0319811663bc197c8160e01b146112c95760405162461bcd60e51b81526004016104ca90612eee565b6001600160a01b0381163b61206b5760405162461bcd60e51b815260206004820152602d60248201527f455243313936373a206e657720696d706c656d656e746174696f6e206973206e60448201526c1bdd08184818dbdb9d1c9858dd609a1b60648201526084016104ca565b600080516020612fb183398151915280546001600160a01b0319166001600160a01b0392909216919091179055565b6120a3836120cb565b6000825111806120b05750805b15610dfb576118a7838361210b565b60cb610ca282826129eb565b6120d481611ffe565b6040516001600160a01b038216907fbc7cd75a20ee27fd9adebab32041f755214dbc6bffa90cc0225b39da2e5c2d3b90600090a250565b60606001600160a01b0383163b6121735760405162461bcd60e51b815260206004820152602660248201527f416464726573733a2064656c65676174652063616c6c20746f206e6f6e2d636f6044820152651b9d1c9858dd60d21b60648201526084016104ca565b600080846001600160a01b03168460405161218e9190612f94565b600060405180830381855af49150503d80600081146121c9576040519150601f19603f3d011682016040523d82523d6000602084013e6121ce565b606091505b50915091506121f68282604051806060016040528060278152602001612fd1602791396121ff565b95945050505050565b6060831561220e575081612238565b82511561221e5782518084602001fd5b8160405162461bcd60e51b81526004016104ca919061231c565b9392505050565b80356001600160a01b03811681146105f357600080fd5b6000806040838503121561226957600080fd5b6122728361223f565b946020939093013593505050565b6001600160e01b031981168114610aaa57600080fd5b6000602082840312156122a857600080fd5b813561223881612280565b6000602082840312156122c557600080fd5b5035919050565b60005b838110156122e75781810151838201526020016122cf565b50506000910152565b600081518084526123088160208601602086016122cc565b601f01601f19169290920160200192915050565b60208152600061223860208301846122f0565b60008060006060848603121561234457600080fd5b61234d8461223f565b95602085013595506040909401359392505050565b634e487b7160e01b600052604160045260246000fd5b601f8201601f191681016001600160401b038111828210171561239d5761239d612362565b6040525050565b600082601f8301126123b557600080fd5b81356001600160401b038111156123ce576123ce612362565b6040516123e5601f8301601f191660200182612378565b8181528460208386010111156123fa57600080fd5b816020850160208301376000918101602001919091529392505050565b6000806000806080858703121561242d57600080fd5b8435935060208501356001600160401b038082111561244b57600080fd5b612457888389016123a4565b9450604087013591508082111561246d57600080fd5b5061247a878288016123a4565b9250506124896060860161223f565b905092959194509250565b60006001600160401b038211156124ad576124ad612362565b5060051b60200190565b600082601f8301126124c857600080fd5b813560206124d582612494565b6040516124e28282612378565b83815260059390931b850182019282810191508684111561250257600080fd5b8286015b8481101561251d5780358352918301918301612506565b509695505050505050565b600080600080600060a0868803121561254057600080fd5b6125498661223f565b94506125576020870161223f565b935060408601356001600160401b038082111561257357600080fd5b61257f89838a016124b7565b9450606088013591508082111561259557600080fd5b6125a189838a016124b7565b935060808801359150808211156125b757600080fd5b506125c4888289016123a4565b9150509295509295909350565b6000602082840312156125e357600080fd5b6122388261223f565b600080604083850312156125ff57600080fd5b82356001600160401b038082111561261657600080fd5b818501915085601f83011261262a57600080fd5b8135602061263782612494565b6040516126448282612378565b83815260059390931b850182019282810191508984111561266457600080fd5b948201945b838610156126895761267a8661223f565b82529482019490820190612669565b9650508601359250508082111561269f57600080fd5b506126ac858286016124b7565b9150509250929050565b600081518084526020808501945080840160005b838110156126e6578151875295820195908201906001016126ca565b509495945050505050565b60208152600061223860208301846126b6565b6000806040838503121561271757600080fd5b6127208361223f565b915060208301356001600160401b0381111561273b57600080fd5b6126ac858286016123a4565b6000806040838503121561275a57600080fd5b82356001600160401b038082111561277157600080fd5b61277d868387016124b7565b9350602085013591508082111561269f57600080fd5b600080604083850312156127a657600080fd5b8235915060208301356001600160401b0381111561273b57600080fd5b600080604083850312156127d657600080fd5b6127df8361223f565b9150602083013580151581146127f457600080fd5b809150509250929050565b6000806040838503121561281257600080fd5b50508035926020909101359150565b60008060006060848603121561283657600080fd5b61283f8461223f565b925060208401356001600160401b038082111561285b57600080fd5b612867878388016124b7565b9350604086013591508082111561287d57600080fd5b5061288a868287016124b7565b9150509250925092565b600080604083850312156128a757600080fd5b6128b08361223f565b91506128be6020840161223f565b90509250929050565b600080600080600060a086880312156128df57600080fd5b6128e88661223f565b94506128f66020870161223f565b9350604086013592506060860135915060808601356001600160401b0381111561291f57600080fd5b6125c4888289016123a4565b600181811c9082168061293f57607f821691505b60208210810361295f57634e487b7160e01b600052602260045260246000fd5b50919050565b634e487b7160e01b600052601160045260246000fd5b808201808211156104f8576104f8612965565b80820281158282048414176104f8576104f8612965565b601f821115610dfb57600081815260208120601f850160051c810160208610156129cc5750805b601f850160051c820191505b81811015611551578281556001016129d8565b81516001600160401b03811115612a0457612a04612362565b612a1881612a12845461292b565b846129a5565b602080601f831160018114612a4d5760008415612a355750858301515b600019600386901b1c1916600185901b178555611551565b600085815260208120601f198616915b82811015612a7c57888601518255948401946001909101908401612a5d565b5085821015612a9a5787850151600019600388901b60f8161c191681555b5050505050600190811b01905550565b6020808252602f908201527f455243313135353a2063616c6c6572206973206e6f7420746f6b656e206f776e60408201526e195c881b9bdc88185c1c1c9bdd9959608a1b606082015260800190565b6020808252602c908201527f46756e6374696f6e206d7573742062652063616c6c6564207468726f7567682060408201526b19195b1959d85d1958d85b1b60a21b606082015260800190565b6020808252602c908201527f46756e6374696f6e206d7573742062652063616c6c6564207468726f7567682060408201526b6163746976652070726f787960a01b606082015260800190565b634e487b7160e01b600052603260045260246000fd5b600060018201612bb957612bb9612965565b5060010190565b60208082526021908201527f455243313135353a206d696e7420746f20746865207a65726f206164647265736040820152607360f81b606082015260800190565b6020808252602b908201527f496e697469616c697a61626c653a20636f6e7472616374206973206e6f74206960408201526a6e697469616c697a696e6760a81b606082015260800190565b60208082526028908201527f455243313135353a2069647320616e6420616d6f756e7473206c656e677468206040820152670dad2e6dac2e8c6d60c31b606082015260800190565b60208082526025908201527f455243313135353a207472616e7366657220746f20746865207a65726f206164604082015264647265737360d81b606082015260800190565b6020808252602a908201527f455243313135353a20696e73756666696369656e742062616c616e636520666f60408201526939103a3930b739b332b960b11b606082015260800190565b604081526000612d3660408301856126b6565b82810360208401526121f681856126b6565b600060208284031215612d5a57600080fd5b5051919050565b60208082526023908201527f455243313135353a206275726e2066726f6d20746865207a65726f206164647260408201526265737360e81b606082015260800190565b60208082526024908201527f455243313135353a206275726e20616d6f756e7420657863656564732062616c604082015263616e636560e01b606082015260800190565b6001600160a01b03868116825285166020820152604081018490526060810183905260a060808201819052600090612e22908301846122f0565b979650505050505050565b600060208284031215612e3f57600080fd5b815161223881612280565b600060033d1115610d575760046000803e5060005160e01c90565b600060443d1015612e735790565b6040516003193d81016004833e81513d6001600160401b038160248401118184111715612ea257505050505090565b8285019150815181811115612eba5750505050505090565b843d8701016020828501011115612ed45750505050505090565b612ee360208286010187612378565b509095945050505050565b60208082526028908201527f455243313135353a204552433131353552656365697665722072656a656374656040820152676420746f6b656e7360c01b606082015260800190565b6001600160a01b0386811682528516602082015260a060408201819052600090612f62908301866126b6565b8281036060840152612f7481866126b6565b90508281036080840152612f8881856122f0565b98975050505050505050565b60008251612fa68184602087016122cc565b919091019291505056fe360894a13ba1a3210667c828492db98dca3e2076cc3735a920a3ca505d382bbc416464726573733a206c6f772d6c6576656c2064656c65676174652063616c6c206661696c6564a2646970667358221220860e1e451121a413722b7959f74a5e2dfc6345325aeccccc60942854d8af0b6064736f6c63430008110033",
  "devdoc": {
    "kind": "dev",
    "methods": {
      "balanceOf(address,uint256)": {
        "details": "See {IERC1155-balanceOf}. Requirements: - `account` cannot be the zero address."
      },
      "balanceOfBatch(address[],uint256[])": {
        "details": "See {IERC1155-balanceOfBatch}. Requirements: - `accounts` and `ids` must have the same length."
      },
      "isApprovedForAll(address,address)": {
        "details": "See {IERC1155-isApprovedForAll}."
      },
      "owner()": {
        "details": "Returns the address of the current owner."
      },
      "proxiableUUID()": {
        "details": "Implementation of the ERC1822 {proxiableUUID} function. This returns the storage slot used by the implementation. It is used to validate that the this implementation remains valid after an upgrade. IMPORTANT: A proxy pointing at a proxiable contract should not be considered proxiable itself, because this risks bricking a proxy that upgrades to it, by delegating to itself until out of gas. Thus it is critical that this function revert if invoked through a proxy. This is guaranteed by the `notDelegated` modifier."
      },
      "renounceOwnership()": {
        "details": "Leaves the contract without owner. It will not be possible to call `onlyOwner` functions anymore. Can only be called by the current owner. NOTE: Renouncing ownership will leave the contract without an owner, thereby removing any functionality that is only available to the owner."
      },
      "safeBatchTransferFrom(address,address,uint256[],uint256[],bytes)": {
        "details": "See {IERC1155-safeBatchTransferFrom}."
      },
      "safeTransferFrom(address,address,uint256,uint256,bytes)": {
        "details": "See {IERC1155-safeTransferFrom}."
      },
      "setApprovalForAll(address,bool)": {
        "details": "See {IERC1155-setApprovalForAll}."
      },
      "supportsInterface(bytes4)": {
        "details": "See {IERC165-supportsInterface}."
      },
      "transferOwnership(address)": {
        "details": "Transfers ownership of the contract to a new account (`newOwner`). Can only be called by the current owner."
      },
      "upgradeTo(address)": {
        "details": "Upgrade the implementation of the proxy to `newImplementation`. Calls {_authorizeUpgrade}. Emits an {Upgraded} event."
      },
      "upgradeToAndCall(address,bytes)": {
        "details": "Upgrade the implementation of the proxy to `newImplementation`, and subsequently execute the function call encoded in `data`. Calls {_authorizeUpgrade}. Emits an {Upgraded} event."
      }
    },
    "version": 1
  },
  "userdoc": {
    "kind": "user",
    "methods": {},
    "version": 1
  },
  "storageLayout": {
    "storage": [
      {
        "astId": 527,
        "contract": "contracts/UglyUrbanGoblin.sol:UglyUrbanGoblin",
        "label": "_initialized",
        "offset": 0,
        "slot": "0",
        "type": "t_uint8"
      },
      {
        "astId": 530,
        "contract": "contracts/UglyUrbanGoblin.sol:UglyUrbanGoblin",
        "label": "_initializing",
        "offset": 1,
        "slot": "0",
        "type": "t_bool"
      },
      {
        "astId": 509,
        "contract": "contracts/UglyUrbanGoblin.sol:UglyUrbanGoblin",
        "label": "__gap",
        "offset": 0,
        "slot": "1",
        "type": "t_array(t_uint256)50_storage"
      },
      {
        "astId": 806,
        "contract": "contracts/UglyUrbanGoblin.sol:UglyUrbanGoblin",
        "label": "__gap",
        "offset": 0,
        "slot": "51",
        "type": "t_array(t_uint256)50_storage"
      },
      {
        "astId": 2573,
        "contract": "contracts/UglyUrbanGoblin.sol:UglyUrbanGoblin",
        "label": "__gap",
        "offset": 0,
        "slot": "101",
        "type": "t_array(t_uint256)50_storage"
      },
      {
        "astId": 2677,
        "contract": "contracts/UglyUrbanGoblin.sol:UglyUrbanGoblin",
        "label": "__gap",
        "offset": 0,
        "slot": "151",
        "type": "t_array(t_uint256)50_storage"
      },
      {
        "astId": 895,
        "contract": "contracts/UglyUrbanGoblin.sol:UglyUrbanGoblin",
        "label": "_balances",
        "offset": 0,
        "slot": "201",
        "type": "t_mapping(t_uint256,t_mapping(t_address,t_uint256))"
      },
      {
        "astId": 901,
        "contract": "contracts/UglyUrbanGoblin.sol:UglyUrbanGoblin",
        "label": "_operatorApprovals",
        "offset": 0,
        "slot": "202",
        "type": "t_mapping(t_address,t_mapping(t_address,t_bool))"
      },
      {
        "astId": 903,
        "contract": "contracts/UglyUrbanGoblin.sol:UglyUrbanGoblin",
        "label": "_uri",
        "offset": 0,
        "slot": "203",
        "type": "t_string_storage"
      },
      {
        "astId": 2110,
        "contract": "contracts/UglyUrbanGoblin.sol:UglyUrbanGoblin",
        "label": "__gap",
        "offset": 0,
        "slot": "204",
        "type": "t_array(t_uint256)47_storage"
      },
      {
        "astId": 10,
        "contract": "contracts/UglyUrbanGoblin.sol:UglyUrbanGoblin",
        "label": "_owner",
        "offset": 0,
        "slot": "251",
        "type": "t_address"
      },
      {
        "astId": 130,
        "contract": "contracts/UglyUrbanGoblin.sol:UglyUrbanGoblin",
        "label": "__gap",
        "offset": 0,
        "slot": "252",
        "type": "t_array(t_uint256)49_storage"
      },
      {
        "astId": 821,
        "contract": "contracts/UglyUrbanGoblin.sol:UglyUrbanGoblin",
        "label": "_status",
        "offset": 0,
        "slot": "301",
        "type": "t_uint256"
      },
      {
        "astId": 865,
        "contract": "contracts/UglyUrbanGoblin.sol:UglyUrbanGoblin",
        "label": "__gap",
        "offset": 0,
        "slot": "302",
        "type": "t_array(t_uint256)49_storage"
      },
      {
        "astId": 2709,
        "contract": "contracts/UglyUrbanGoblin.sol:UglyUrbanGoblin",
        "label": "artPrice",
        "offset": 0,
        "slot": "351",
        "type": "t_uint256"
      },
      {
        "astId": 2711,
        "contract": "contracts/UglyUrbanGoblin.sol:UglyUrbanGoblin",
        "label": "name",
        "offset": 0,
        "slot": "352",
        "type": "t_string_storage"
      },
      {
        "astId": 2713,
        "contract": "contracts/UglyUrbanGoblin.sol:UglyUrbanGoblin",
        "label": "symbol",
        "offset": 0,
        "slot": "353",
        "type": "t_string_storage"
      },
      {
        "astId": 2715,
        "contract": "contracts/UglyUrbanGoblin.sol:UglyUrbanGoblin",
        "label": "paySplitter",
        "offset": 0,
        "slot": "354",
        "type": "t_address_payable"
      },
      {
        "astId": 2719,
        "contract": "contracts/UglyUrbanGoblin.sol:UglyUrbanGoblin",
        "label": "artSypply",
        "offset": 0,
        "slot": "355",
        "type": "t_mapping(t_uint256,t_uint256)"
      },
      {
        "astId": 2723,
        "contract": "contracts/UglyUrbanGoblin.sol:UglyUrbanGoblin",
        "label": "tokenURI",
        "offset": 0,
        "slot": "356",
        "type": "t_mapping(t_uint256,t_string_storage)"
      }
    ],
    "types": {
      "t_address": {
        "encoding": "inplace",
        "label": "address",
        "numberOfBytes": "20"
      },
      "t_address_payable": {
        "encoding": "inplace",
        "label": "address payable",
        "numberOfBytes": "20"
      },
      "t_array(t_uint256)47_storage": {
        "base": "t_uint256",
        "encoding": "inplace",
        "label": "uint256[47]",
        "numberOfBytes": "1504"
      },
      "t_array(t_uint256)49_storage": {
        "base": "t_uint256",
        "encoding": "inplace",
        "label": "uint256[49]",
        "numberOfBytes": "1568"
      },
      "t_array(t_uint256)50_storage": {
        "base": "t_uint256",
        "encoding": "inplace",
        "label": "uint256[50]",
        "numberOfBytes": "1600"
      },
      "t_bool": {
        "encoding": "inplace",
        "label": "bool",
        "numberOfBytes": "1"
      },
      "t_mapping(t_address,t_bool)": {
        "encoding": "mapping",
        "key": "t_address",
        "label": "mapping(address => bool)",
        "numberOfBytes": "32",
        "value": "t_bool"
      },
      "t_mapping(t_address,t_mapping(t_address,t_bool))": {
        "encoding": "mapping",
        "key": "t_address",
        "label": "mapping(address => mapping(address => bool))",
        "numberOfBytes": "32",
        "value": "t_mapping(t_address,t_bool)"
      },
      "t_mapping(t_address,t_uint256)": {
        "encoding": "mapping",
        "key": "t_address",
        "label": "mapping(address => uint256)",
        "numberOfBytes": "32",
        "value": "t_uint256"
      },
      "t_mapping(t_uint256,t_mapping(t_address,t_uint256))": {
        "encoding": "mapping",
        "key": "t_uint256",
        "label": "mapping(uint256 => mapping(address => uint256))",
        "numberOfBytes": "32",
        "value": "t_mapping(t_address,t_uint256)"
      },
      "t_mapping(t_uint256,t_string_storage)": {
        "encoding": "mapping",
        "key": "t_uint256",
        "label": "mapping(uint256 => string)",
        "numberOfBytes": "32",
        "value": "t_string_storage"
      },
      "t_mapping(t_uint256,t_uint256)": {
        "encoding": "mapping",
        "key": "t_uint256",
        "label": "mapping(uint256 => uint256)",
        "numberOfBytes": "32",
        "value": "t_uint256"
      },
      "t_string_storage": {
        "encoding": "bytes",
        "label": "string",
        "numberOfBytes": "32"
      },
      "t_uint256": {
        "encoding": "inplace",
        "label": "uint256",
        "numberOfBytes": "32"
      },
      "t_uint8": {
        "encoding": "inplace",
        "label": "uint8",
        "numberOfBytes": "1"
      }
    }
  }
}