{
  "address": "0xe7f1725E7734CE288F8367e1Bb143E90bb3F0512",
  "abi": [
    {
      "anonymous": false,
      "inputs": [
        {
          "indexed": false,
          "internalType": "address",
          "name": "previousAdmin",
          "type": "address"
        },
        {
          "indexed": false,
          "internalType": "address",
          "name": "newAdmin",
          "type": "address"
        }
      ],
      "name": "AdminChanged",
      "type": "event"
    },
    {
      "anonymous": false,
      "inputs": [
        {
          "indexed": true,
          "internalType": "address",
          "name": "account",
          "type": "address"
        },
        {
          "indexed": true,
          "internalType": "address",
          "name": "operator",
          "type": "address"
        },
        {
          "indexed": false,
          "internalType": "bool",
          "name": "approved",
          "type": "bool"
        }
      ],
      "name": "ApprovalForAll",
      "type": "event"
    },
    {
      "anonymous": false,
      "inputs": [
        {
          "indexed": true,
          "internalType": "address",
          "name": "beacon",
          "type": "address"
        }
      ],
      "name": "BeaconUpgraded",
      "type": "event"
    },
    {
      "anonymous": false,
      "inputs": [
        {
          "indexed": false,
          "internalType": "uint8",
          "name": "version",
          "type": "uint8"
        }
      ],
      "name": "Initialized",
      "type": "event"
    },
    {
      "anonymous": false,
      "inputs": [
        {
          "indexed": true,
          "internalType": "address",
          "name": "previousOwner",
          "type": "address"
        },
        {
          "indexed": true,
          "internalType": "address",
          "name": "newOwner",
          "type": "address"
        }
      ],
      "name": "OwnershipTransferred",
      "type": "event"
    },
    {
      "anonymous": false,
      "inputs": [
        {
          "indexed": true,
          "internalType": "address",
          "name": "operator",
          "type": "address"
        },
        {
          "indexed": true,
          "internalType": "address",
          "name": "from",
          "type": "address"
        },
        {
          "indexed": true,
          "internalType": "address",
          "name": "to",
          "type": "address"
        },
        {
          "indexed": false,
          "internalType": "uint256[]",
          "name": "ids",
          "type": "uint256[]"
        },
        {
          "indexed": false,
          "internalType": "uint256[]",
          "name": "values",
          "type": "uint256[]"
        }
      ],
      "name": "TransferBatch",
      "type": "event"
    },
    {
      "anonymous": false,
      "inputs": [
        {
          "indexed": true,
          "internalType": "address",
          "name": "operator",
          "type": "address"
        },
        {
          "indexed": true,
          "internalType": "address",
          "name": "from",
          "type": "address"
        },
        {
          "indexed": true,
          "internalType": "address",
          "name": "to",
          "type": "address"
        },
        {
          "indexed": false,
          "internalType": "uint256",
          "name": "id",
          "type": "uint256"
        },
        {
          "indexed": false,
          "internalType": "uint256",
          "name": "value",
          "type": "uint256"
        }
      ],
      "name": "TransferSingle",
      "type": "event"
    },
    {
      "anonymous": false,
      "inputs": [
        {
          "indexed": false,
          "internalType": "string",
          "name": "value",
          "type": "string"
        },
        {
          "indexed": true,
          "internalType": "uint256",
          "name": "id",
          "type": "uint256"
        }
      ],
      "name": "URI",
      "type": "event"
    },
    {
      "anonymous": false,
      "inputs": [
        {
          "indexed": true,
          "internalType": "address",
          "name": "implementation",
          "type": "address"
        }
      ],
      "name": "Upgraded",
      "type": "event"
    },
    {
      "inputs": [
        {
          "internalType": "uint256",
          "name": "artPrice_",
          "type": "uint256"
        },
        {
          "internalType": "string",
          "name": "name_",
          "type": "string"
        },
        {
          "internalType": "string",
          "name": "symbol_",
          "type": "string"
        },
        {
          "internalType": "address",
          "name": "_payment",
          "type": "address"
        }
      ],
      "name": "_initializableNFT",
      "outputs": [],
      "stateMutability": "nonpayable",
      "type": "function"
    },
    {
      "inputs": [
        {
          "internalType": "address",
          "name": "account",
          "type": "address"
        },
        {
          "internalType": "uint256",
          "name": "id",
          "type": "uint256"
        }
      ],
      "name": "balanceOf",
      "outputs": [
        {
          "internalType": "uint256",
          "name": "",
          "type": "uint256"
        }
      ],
      "stateMutability": "view",
      "type": "function"
    },
    {
      "inputs": [
        {
          "internalType": "address[]",
          "name": "accounts",
          "type": "address[]"
        },
        {
          "internalType": "uint256[]",
          "name": "ids",
          "type": "uint256[]"
        }
      ],
      "name": "balanceOfBatch",
      "outputs": [
        {
          "internalType": "uint256[]",
          "name": "",
          "type": "uint256[]"
        }
      ],
      "stateMutability": "view",
      "type": "function"
    },
    {
      "inputs": [
        {
          "internalType": "uint256",
          "name": "_id",
          "type": "uint256"
        },
        {
          "internalType": "uint256",
          "name": "_amount",
          "type": "uint256"
        }
      ],
      "name": "burn",
      "outputs": [],
      "stateMutability": "nonpayable",
      "type": "function"
    },
    {
      "inputs": [
        {
          "internalType": "uint256[]",
          "name": "_ids",
          "type": "uint256[]"
        },
        {
          "internalType": "uint256[]",
          "name": "_amounts",
          "type": "uint256[]"
        }
      ],
      "name": "burnBatch",
      "outputs": [],
      "stateMutability": "nonpayable",
      "type": "function"
    },
    {
      "inputs": [],
      "name": "getArtPrice",
      "outputs": [
        {
          "internalType": "uint256",
          "name": "",
          "type": "uint256"
        }
      ],
      "stateMutability": "view",
      "type": "function"
    },
    {
      "inputs": [],
      "name": "getName",
      "outputs": [
        {
          "internalType": "string",
          "name": "",
          "type": "string"
        }
      ],
      "stateMutability": "view",
      "type": "function"
    },
    {
      "inputs": [],
      "name": "getSymbol",
      "outputs": [
        {
          "internalType": "string",
          "name": "",
          "type": "string"
        }
      ],
      "stateMutability": "view",
      "type": "function"
    },
    {
      "inputs": [
        {
          "internalType": "address",
          "name": "account",
          "type": "address"
        },
        {
          "internalType": "address",
          "name": "operator",
          "type": "address"
        }
      ],
      "name": "isApprovedForAll",
      "outputs": [
        {
          "internalType": "bool",
          "name": "",
          "type": "bool"
        }
      ],
      "stateMutability": "view",
      "type": "function"
    },
    {
      "inputs": [
        {
          "internalType": "address",
          "name": "_to",
          "type": "address"
        },
        {
          "internalType": "uint256",
          "name": "id",
          "type": "uint256"
        },
        {
          "internalType": "uint256",
          "name": "amount",
          "type": "uint256"
        }
      ],
      "name": "mint",
      "outputs": [],
      "stateMutability": "payable",
      "type": "function"
    },
    {
      "inputs": [
        {
          "internalType": "address",
          "name": "_to",
          "type": "address"
        },
        {
          "internalType": "uint256[]",
          "name": "ids",
          "type": "uint256[]"
        },
        {
          "internalType": "uint256[]",
          "name": "amounts",
          "type": "uint256[]"
        }
      ],
      "name": "mintBatch",
      "outputs": [],
      "stateMutability": "nonpayable",
      "type": "function"
    },
    {
      "inputs": [],
      "name": "owner",
      "outputs": [
        {
          "internalType": "address",
          "name": "",
          "type": "address"
        }
      ],
      "stateMutability": "view",
      "type": "function"
    },
    {
      "inputs": [],
      "name": "proxiableUUID",
      "outputs": [
        {
          "internalType": "bytes32",
          "name": "",
          "type": "bytes32"
        }
      ],
      "stateMutability": "view",
      "type": "function"
    },
    {
      "inputs": [],
      "name": "renounceOwnership",
      "outputs": [],
      "stateMutability": "nonpayable",
      "type": "function"
    },
    {
      "inputs": [
        {
          "internalType": "address",
          "name": "from",
          "type": "address"
        },
        {
          "internalType": "address",
          "name": "to",
          "type": "address"
        },
        {
          "internalType": "uint256[]",
          "name": "ids",
          "type": "uint256[]"
        },
        {
          "internalType": "uint256[]",
          "name": "amounts",
          "type": "uint256[]"
        },
        {
          "internalType": "bytes",
          "name": "data",
          "type": "bytes"
        }
      ],
      "name": "safeBatchTransferFrom",
      "outputs": [],
      "stateMutability": "nonpayable",
      "type": "function"
    },
    {
      "inputs": [
        {
          "internalType": "address",
          "name": "from",
          "type": "address"
        },
        {
          "internalType": "address",
          "name": "to",
          "type": "address"
        },
        {
          "internalType": "uint256",
          "name": "id",
          "type": "uint256"
        },
        {
          "internalType": "uint256",
          "name": "amount",
          "type": "uint256"
        },
        {
          "internalType": "bytes",
          "name": "data",
          "type": "bytes"
        }
      ],
      "name": "safeTransferFrom",
      "outputs": [],
      "stateMutability": "nonpayable",
      "type": "function"
    },
    {
      "inputs": [
        {
          "internalType": "address",
          "name": "operator",
          "type": "address"
        },
        {
          "internalType": "bool",
          "name": "approved",
          "type": "bool"
        }
      ],
      "name": "setApprovalForAll",
      "outputs": [],
      "stateMutability": "nonpayable",
      "type": "function"
    },
    {
      "inputs": [
        {
          "internalType": "uint256",
          "name": "_id",
          "type": "uint256"
        },
        {
          "internalType": "string",
          "name": "_uri",
          "type": "string"
        }
      ],
      "name": "setURI",
      "outputs": [],
      "stateMutability": "nonpayable",
      "type": "function"
    },
    {
      "inputs": [
        {
          "internalType": "bytes4",
          "name": "interfaceId",
          "type": "bytes4"
        }
      ],
      "name": "supportsInterface",
      "outputs": [
        {
          "internalType": "bool",
          "name": "",
          "type": "bool"
        }
      ],
      "stateMutability": "view",
      "type": "function"
    },
    {
      "inputs": [
        {
          "internalType": "uint256",
          "name": "id_",
          "type": "uint256"
        }
      ],
      "name": "totalArtSupply",
      "outputs": [
        {
          "internalType": "uint256",
          "name": "",
          "type": "uint256"
        }
      ],
      "stateMutability": "view",
      "type": "function"
    },
    {
      "inputs": [
        {
          "internalType": "address",
          "name": "newOwner",
          "type": "address"
        }
      ],
      "name": "transferOwnership",
      "outputs": [],
      "stateMutability": "nonpayable",
      "type": "function"
    },
    {
      "inputs": [
        {
          "internalType": "uint256",
          "name": "_newPrice",
          "type": "uint256"
        }
      ],
      "name": "updateArtPrice",
      "outputs": [],
      "stateMutability": "nonpayable",
      "type": "function"
    },
    {
      "inputs": [
        {
          "internalType": "address",
          "name": "newImplementation",
          "type": "address"
        }
      ],
      "name": "upgradeTo",
      "outputs": [],
      "stateMutability": "nonpayable",
      "type": "function"
    },
    {
      "inputs": [
        {
          "internalType": "address",
          "name": "newImplementation",
          "type": "address"
        },
        {
          "internalType": "bytes",
          "name": "data",
          "type": "bytes"
        }
      ],
      "name": "upgradeToAndCall",
      "outputs": [],
      "stateMutability": "payable",
      "type": "function"
    },
    {
      "inputs": [
        {
          "internalType": "uint256",
          "name": "_id",
          "type": "uint256"
        }
      ],
      "name": "uri",
      "outputs": [
        {
          "internalType": "string",
          "name": "",
          "type": "string"
        }
      ],
      "stateMutability": "view",
      "type": "function"
    }
  ],
  "transactionHash": "0x9b858380827e3414b413bd7a59969fa61d1eef90aacaab1961e6c14b5f3dddda",
  "args": [],
  "numDeployments": 1,
  "solcInputHash": "77471ea8ea10b48b0ce9e5e97ae19c20",
  "bytecode": "0x60a06040523060805234801561001457600080fd5b5060805161312061004c60003960008181610ac601528181610b0601528181610cce01528181610d0e0152610da101526131206000f3fe6080604052600436106101645760003560e01c806352d1902d116100d1578063a22cb4651161008a578063e985e9c511610064578063e985e9c51461040a578063f242432a14610453578063f2fde38b14610473578063f74610f91461049357600080fd5b8063a22cb465146103aa578063b390c0ab146103ca578063d81d0a15146103ea57600080fd5b806352d1902d146102ea5780636cd2280f146102ff578063715018a61461032d57806383ca4b6f14610342578063862440e2146103625780638da5cb5b1461038257600080fd5b806317d7de7c1161012357806317d7de7c146102355780632e204d471461024a5780632eb2c2d61461026a5780633659cfe61461028a5780634e1273f4146102aa5780634f1ef286146102d757600080fd5b806216c62014610169578062fdd58e1461018e57806301ffc9a7146101ae5780630e89341c146101de578063150704011461020b578063156e29f614610220575b600080fd5b34801561017557600080fd5b5061015f545b6040519081526020015b60405180910390f35b34801561019a57600080fd5b5061017b6101a9366004612349565b6104b3565b3480156101ba57600080fd5b506101ce6101c9366004612389565b61054e565b6040519015158152602001610185565b3480156101ea57600080fd5b506101fe6101f93660046123a6565b61059e565b604051610185919061240f565b34801561021757600080fd5b506101fe610641565b61023361022e366004612422565b6106d4565b005b34801561024157600080fd5b506101fe6108ec565b34801561025657600080fd5b5061023361026536600461250a565b6108fc565b34801561027657600080fd5b5061023361028536600461261b565b610a77565b34801561029657600080fd5b506102336102a53660046126c4565b610abc565b3480156102b657600080fd5b506102ca6102c53660046126df565b610b9b565b60405161018591906127e4565b6102336102e53660046127f7565b610cc4565b3480156102f657600080fd5b5061017b610d94565b34801561030b57600080fd5b5061017b61031a3660046123a6565b6000908152610163602052604090205490565b34801561033957600080fd5b50610233610e48565b34801561034e57600080fd5b5061023361035d36600461283a565b610e5c565b34801561036e57600080fd5b5061023361037d366004612886565b610eee565b34801561038e57600080fd5b5060fb546040516001600160a01b039091168152602001610185565b3480156103b657600080fd5b506102336103c53660046128b6565b610f4c565b3480156103d657600080fd5b506102336103e53660046128f2565b610f57565b3480156103f657600080fd5b50610233610405366004612914565b610fbb565b34801561041657600080fd5b506101ce610425366004612987565b6001600160a01b03918216600090815260ca6020908152604080832093909416825291909152205460ff1690565b34801561045f57600080fd5b5061023361046e3660046129ba565b6111c1565b34801561047f57600080fd5b5061023361048e3660046126c4565b611206565b34801561049f57600080fd5b506102336104ae3660046123a6565b61127c565b60006001600160a01b0383166105235760405162461bcd60e51b815260206004820152602a60248201527f455243313135353a2061646472657373207a65726f206973206e6f742061207660448201526930b634b21037bbb732b960b11b60648201526084015b60405180910390fd5b50600081815260c9602090815260408083206001600160a01b03861684529091529020545b92915050565b60006001600160e01b03198216636cdb3d1360e11b148061057f57506001600160e01b031982166303a24d0760e21b145b8061054857506301ffc9a760e01b6001600160e01b0319831614610548565b6000818152610164602052604090208054606091906105bc90612a1e565b80601f01602080910402602001604051908101604052809291908181526020018280546105e890612a1e565b80156106355780601f1061060a57610100808354040283529160200191610635565b820191906000526020600020905b81548152906001019060200180831161061857829003601f168201915b50505050509050919050565b6060610161805461065190612a1e565b80601f016020809104026020016040519081016040528092919081815260200182805461067d90612a1e565b80156106ca5780601f1061069f576101008083540402835291602001916106ca565b820191906000526020600020905b8154815290600101906020018083116106ad57829003601f168201915b5050505050905090565b600261012d54036107275760405162461bcd60e51b815260206004820152601f60248201527f5265656e7472616e637947756172643a207265656e7472616e742063616c6c00604482015260640161051a565b600261012d558061077a5760405162461bcd60e51b815260206004820152601a60248201527f4d696e743a20616d6f756e742f54782070726f68696269746564000000000000604482015260640161051a565b60648161078785856104b3565b6107919190612a6e565b11156107df5760405162461bcd60e51b815260206004820152601760248201527f4d696e743a20537570706c792f54782072656163686564000000000000000000604482015260640161051a565b600082815261016360205260409020546103e810156108405760405162461bcd60e51b815260206004820152601c60248201527f4d696e743a20417274206d617820737570706c79207265616368656400000000604482015260640161051a565b8061015f5461084f9190612a81565b3410156108975760405162461bcd60e51b81526020600482015260166024820152754d696e743a204e65656473206d6f72652066756e647360501b604482015260640161051a565b60008281526101636020526040812080548392906108b6908490612a6e565b925050819055506108d88383836040518060200160405280600081525061128a565b6108e134611366565b5050600161012d5550565b6060610160805461065190612a1e565b600054610100900460ff161580801561091c5750600054600160ff909116105b806109365750303b158015610936575060005460ff166001145b6109995760405162461bcd60e51b815260206004820152602e60248201527f496e697469616c697a61626c653a20636f6e747261637420697320616c72656160448201526d191e481a5b9a5d1a585b1a5e995960921b606482015260840161051a565b6000805460ff1916600117905580156109bc576000805461ff0019166101001790555b61015f8590556101606109cf8582612ade565b506101616109dd8482612ade565b5061016280546001600160a01b0319166001600160a01b038416179055610a02611399565b610a0a6113c8565b610a126113ef565b610a2a6040518060200160405280600081525061141e565b8015610a70576000805461ff0019169055604051600181527f7f26b83ff96e1f2b6a682f133852f6798a09c465da95921460cefb38474024989060200160405180910390a15b5050505050565b6001600160a01b038516331480610a935750610a938533610425565b610aaf5760405162461bcd60e51b815260040161051a90612b9d565b610a70858585858561144e565b6001600160a01b037f0000000000000000000000000000000000000000000000000000000000000000163003610b045760405162461bcd60e51b815260040161051a90612bec565b7f00000000000000000000000000000000000000000000000000000000000000006001600160a01b0316610b4d6000805160206130a4833981519152546001600160a01b031690565b6001600160a01b031614610b735760405162461bcd60e51b815260040161051a90612c38565b610b7c816115ed565b60408051600080825260208201909252610b98918391906115f5565b50565b60608151835114610c005760405162461bcd60e51b815260206004820152602960248201527f455243313135353a206163636f756e747320616e6420696473206c656e677468604482015268040dad2e6dac2e8c6d60bb1b606482015260840161051a565b600083516001600160401b03811115610c1b57610c1b612455565b604051908082528060200260200182016040528015610c44578160200160208202803683370190505b50905060005b8451811015610cbc57610c8f858281518110610c6857610c68612c84565b6020026020010151858381518110610c8257610c82612c84565b60200260200101516104b3565b828281518110610ca157610ca1612c84565b6020908102919091010152610cb581612c9a565b9050610c4a565b509392505050565b6001600160a01b037f0000000000000000000000000000000000000000000000000000000000000000163003610d0c5760405162461bcd60e51b815260040161051a90612bec565b7f00000000000000000000000000000000000000000000000000000000000000006001600160a01b0316610d556000805160206130a4833981519152546001600160a01b031690565b6001600160a01b031614610d7b5760405162461bcd60e51b815260040161051a90612c38565b610d84826115ed565b610d90828260016115f5565b5050565b6000306001600160a01b037f00000000000000000000000000000000000000000000000000000000000000001614610e345760405162461bcd60e51b815260206004820152603860248201527f555550535570677261646561626c653a206d757374206e6f742062652063616c60448201527f6c6564207468726f7567682064656c656761746563616c6c0000000000000000606482015260840161051a565b506000805160206130a48339815191525b90565b610e50611760565b610e5a60006117ba565b565b60005b82518110610ee9576000610e7f33858481518110610c8257610c82612c84565b11610ecc5760405162461bcd60e51b815260206004820152601e60248201527f42415443485f4255524e20596f75277265206e6f7420616e204f776e65720000604482015260640161051a565b610ed733848461180c565b80610ee181612c9a565b915050610e5f565b505050565b610ef6611760565b600082815261016460205260409020610f0f8282612ade565b50817f6bb7ff708619ba0610cba295a58592e0451dee2622938c8755667688daf3529b82604051610f40919061240f565b60405180910390a25050565b610d9033838361199b565b6000610f6333846104b3565b11610fb05760405162461bcd60e51b815260206004820152601860248201527f4255524e20596f75277265206e6f7420616e204f776e65720000000000000000604482015260640161051a565b610d90338383611a7b565b610fc3611760565b60005b82518110156111a55782518251146110335760405162461bcd60e51b815260206004820152602a60248201527f4d696e7442617463683a20616d6f756e747320616e6420696473206c656e67746044820152690d040dad2e6dac2e8c6d60b31b606482015260840161051a565b600082828151811061104757611047612c84565b60200260200101511180156110755750606582828151811061106b5761106b612c84565b6020026020010151105b6110c15760405162461bcd60e51b815260206004820152601f60248201527f4d696e7442617463683a20616d6f756e742f54782070726f6869626974656400604482015260640161051a565b60008382815181106110d5576110d5612c84565b602002602001015190506103e86101636000838152602001908152602001600020541061114e5760405162461bcd60e51b815260206004820152602160248201527f4d696e7442617463683a20417274206d617820737570706c79207265616368656044820152601960fa1b606482015260840161051a565b82828151811061116057611160612c84565b60200260200101516101636000838152602001908152602001600020600082825461118b9190612a6e565b9091555082915061119d905081612c9a565b915050610fc6565b50610ee983838360405180602001604052806000815250611b82565b6001600160a01b0385163314806111dd57506111dd8533610425565b6111f95760405162461bcd60e51b815260040161051a90612b9d565b610a708585858585611cce565b61120e611760565b6001600160a01b0381166112735760405162461bcd60e51b815260206004820152602660248201527f4f776e61626c653a206e6577206f776e657220697320746865207a65726f206160448201526564647265737360d01b606482015260840161051a565b610b98816117ba565b611284611760565b61015f55565b6001600160a01b0384166112b05760405162461bcd60e51b815260040161051a90612cb3565b3360006112bc85611dfc565b905060006112c985611dfc565b9050600086815260c9602090815260408083206001600160a01b038b168452909152812080548792906112fd908490612a6e565b909155505060408051878152602081018790526001600160a01b03808a1692600092918716917fc3d58168c5ae7397731d063d5bbf3d657854427343f4c083240f7aacaa2d0f62910160405180910390a461135d83600089898989611e47565b50505050505050565b610162546040516001600160a01b039091169082156108fc029083906000818181858888f19350505050610b9857600080fd5b600054610100900460ff166113c05760405162461bcd60e51b815260040161051a90612cf4565b610e5a611fa2565b600054610100900460ff16610e5a5760405162461bcd60e51b815260040161051a90612cf4565b600054610100900460ff166114165760405162461bcd60e51b815260040161051a90612cf4565b610e5a611fd2565b600054610100900460ff166114455760405162461bcd60e51b815260040161051a90612cf4565b610b9881612001565b815183511461146f5760405162461bcd60e51b815260040161051a90612d3f565b6001600160a01b0384166114955760405162461bcd60e51b815260040161051a90612d87565b3360005b845181101561157f5760008582815181106114b6576114b6612c84565b6020026020010151905060008583815181106114d4576114d4612c84565b602090810291909101810151600084815260c9835260408082206001600160a01b038e1683529093529190912054909150818110156115255760405162461bcd60e51b815260040161051a90612dcc565b600083815260c9602090815260408083206001600160a01b038e8116855292528083208585039055908b16825281208054849290611564908490612a6e565b925050819055505050508061157890612c9a565b9050611499565b50846001600160a01b0316866001600160a01b0316826001600160a01b03167f4a39dc06d4c0dbc64b70af90fd698a233a518aa5d07e595d983b8c0526c8f7fb87876040516115cf929190612e16565b60405180910390a46115e5818787878787612031565b505050505050565b610b98611760565b7f4910fdfa16fed3260ed0e7147f7cc6da11a60208b5b9406d12a635614ffd91435460ff161561162857610ee9836120ec565b826001600160a01b03166352d1902d6040518163ffffffff1660e01b8152600401602060405180830381865afa925050508015611682575060408051601f3d908101601f1916820190925261167f91810190612e3b565b60015b6116e55760405162461bcd60e51b815260206004820152602e60248201527f45524331393637557067726164653a206e657720696d706c656d656e7461746960448201526d6f6e206973206e6f74205555505360901b606482015260840161051a565b6000805160206130a483398151915281146117545760405162461bcd60e51b815260206004820152602960248201527f45524331393637557067726164653a20756e737570706f727465642070726f786044820152681a58589b195555525160ba1b606482015260840161051a565b50610ee9838383612188565b60fb546001600160a01b03163314610e5a5760405162461bcd60e51b815260206004820181905260248201527f4f776e61626c653a2063616c6c6572206973206e6f7420746865206f776e6572604482015260640161051a565b60fb80546001600160a01b038381166001600160a01b0319831681179093556040519116919082907f8be0079c531659141344cd1fd0a4f28419497f9722a3daafe3b4186f6b6457e090600090a35050565b6001600160a01b0383166118325760405162461bcd60e51b815260040161051a90612e54565b80518251146118535760405162461bcd60e51b815260040161051a90612d3f565b604080516020810190915260009081905233905b835181101561192c57600084828151811061188457611884612c84565b6020026020010151905060008483815181106118a2576118a2612c84565b602090810291909101810151600084815260c9835260408082206001600160a01b038c1683529093529190912054909150818110156118f35760405162461bcd60e51b815260040161051a90612e97565b600092835260c9602090815260408085206001600160a01b038b168652909152909220910390558061192481612c9a565b915050611867565b5060006001600160a01b0316846001600160a01b0316826001600160a01b03167f4a39dc06d4c0dbc64b70af90fd698a233a518aa5d07e595d983b8c0526c8f7fb868660405161197d929190612e16565b60405180910390a46040805160208101909152600090525b50505050565b816001600160a01b0316836001600160a01b031603611a0e5760405162461bcd60e51b815260206004820152602960248201527f455243313135353a2073657474696e6720617070726f76616c20737461747573604482015268103337b91039b2b63360b91b606482015260840161051a565b6001600160a01b03838116600081815260ca6020908152604080832094871680845294825291829020805460ff191686151590811790915591519182527f17307eab39ab6107e8899845ad3d59bd9653f200f220920489ca2b5937696c31910160405180910390a3505050565b6001600160a01b038316611aa15760405162461bcd60e51b815260040161051a90612e54565b336000611aad84611dfc565b90506000611aba84611dfc565b604080516020808201835260009182905288825260c981528282206001600160a01b038b1683529052205490915084811015611b085760405162461bcd60e51b815260040161051a90612e97565b600086815260c9602090815260408083206001600160a01b038b81168086529184528285208a8703905582518b81529384018a90529092908816917fc3d58168c5ae7397731d063d5bbf3d657854427343f4c083240f7aacaa2d0f62910160405180910390a460408051602081019091526000905261135d565b6001600160a01b038416611ba85760405162461bcd60e51b815260040161051a90612cb3565b8151835114611bc95760405162461bcd60e51b815260040161051a90612d3f565b3360005b8451811015611c6657838181518110611be857611be8612c84565b602002602001015160c96000878481518110611c0657611c06612c84565b602002602001015181526020019081526020016000206000886001600160a01b03166001600160a01b031681526020019081526020016000206000828254611c4e9190612a6e565b90915550819050611c5e81612c9a565b915050611bcd565b50846001600160a01b031660006001600160a01b0316826001600160a01b03167f4a39dc06d4c0dbc64b70af90fd698a233a518aa5d07e595d983b8c0526c8f7fb8787604051611cb7929190612e16565b60405180910390a4610a7081600087878787612031565b6001600160a01b038416611cf45760405162461bcd60e51b815260040161051a90612d87565b336000611d0085611dfc565b90506000611d0d85611dfc565b9050600086815260c9602090815260408083206001600160a01b038c16845290915290205485811015611d525760405162461bcd60e51b815260040161051a90612dcc565b600087815260c9602090815260408083206001600160a01b038d8116855292528083208985039055908a16825281208054889290611d91908490612a6e565b909155505060408051888152602081018890526001600160a01b03808b16928c821692918816917fc3d58168c5ae7397731d063d5bbf3d657854427343f4c083240f7aacaa2d0f62910160405180910390a4611df1848a8a8a8a8a611e47565b505050505050505050565b60408051600180825281830190925260609160009190602080830190803683370190505090508281600081518110611e3657611e36612c84565b602090810291909101015292915050565b6001600160a01b0384163b156115e55760405163f23a6e6160e01b81526001600160a01b0385169063f23a6e6190611e8b9089908990889088908890600401612edb565b6020604051808303816000875af1925050508015611ec6575060408051601f3d908101601f19168201909252611ec391810190612f20565b60015b611f7257611ed2612f3d565b806308c379a003611f0b5750611ee6612f58565b80611ef15750611f0d565b8060405162461bcd60e51b815260040161051a919061240f565b505b60405162461bcd60e51b815260206004820152603460248201527f455243313135353a207472616e7366657220746f206e6f6e20455243313135356044820152732932b1b2b4bb32b91034b6b83632b6b2b73a32b960611b606482015260840161051a565b6001600160e01b0319811663f23a6e6160e01b1461135d5760405162461bcd60e51b815260040161051a90612fe1565b600054610100900460ff16611fc95760405162461bcd60e51b815260040161051a90612cf4565b610e5a336117ba565b600054610100900460ff16611ff95760405162461bcd60e51b815260040161051a90612cf4565b600161012d55565b600054610100900460ff166120285760405162461bcd60e51b815260040161051a90612cf4565b610b98816121ad565b6001600160a01b0384163b156115e55760405163bc197c8160e01b81526001600160a01b0385169063bc197c81906120759089908990889088908890600401613029565b6020604051808303816000875af19250505080156120b0575060408051601f3d908101601f191682019092526120ad91810190612f20565b60015b6120bc57611ed2612f3d565b6001600160e01b0319811663bc197c8160e01b1461135d5760405162461bcd60e51b815260040161051a90612fe1565b6001600160a01b0381163b6121595760405162461bcd60e51b815260206004820152602d60248201527f455243313936373a206e657720696d706c656d656e746174696f6e206973206e60448201526c1bdd08184818dbdb9d1c9858dd609a1b606482015260840161051a565b6000805160206130a483398151915280546001600160a01b0319166001600160a01b0392909216919091179055565b612191836121b9565b60008251118061219e5750805b15610ee95761199583836121f9565b60cb610d908282612ade565b6121c2816120ec565b6040516001600160a01b038216907fbc7cd75a20ee27fd9adebab32041f755214dbc6bffa90cc0225b39da2e5c2d3b90600090a250565b60606001600160a01b0383163b6122615760405162461bcd60e51b815260206004820152602660248201527f416464726573733a2064656c65676174652063616c6c20746f206e6f6e2d636f6044820152651b9d1c9858dd60d21b606482015260840161051a565b600080846001600160a01b03168460405161227c9190613087565b600060405180830381855af49150503d80600081146122b7576040519150601f19603f3d011682016040523d82523d6000602084013e6122bc565b606091505b50915091506122e482826040518060600160405280602781526020016130c4602791396122ed565b95945050505050565b606083156122fc575081612326565b82511561230c5782518084602001fd5b8160405162461bcd60e51b815260040161051a919061240f565b9392505050565b80356001600160a01b038116811461234457600080fd5b919050565b6000806040838503121561235c57600080fd5b6123658361232d565b946020939093013593505050565b6001600160e01b031981168114610b9857600080fd5b60006020828403121561239b57600080fd5b813561232681612373565b6000602082840312156123b857600080fd5b5035919050565b60005b838110156123da5781810151838201526020016123c2565b50506000910152565b600081518084526123fb8160208601602086016123bf565b601f01601f19169290920160200192915050565b60208152600061232660208301846123e3565b60008060006060848603121561243757600080fd5b6124408461232d565b95602085013595506040909401359392505050565b634e487b7160e01b600052604160045260246000fd5b601f8201601f191681016001600160401b038111828210171561249057612490612455565b6040525050565b600082601f8301126124a857600080fd5b81356001600160401b038111156124c1576124c1612455565b6040516124d8601f8301601f19166020018261246b565b8181528460208386010111156124ed57600080fd5b816020850160208301376000918101602001919091529392505050565b6000806000806080858703121561252057600080fd5b8435935060208501356001600160401b038082111561253e57600080fd5b61254a88838901612497565b9450604087013591508082111561256057600080fd5b5061256d87828801612497565b92505061257c6060860161232d565b905092959194509250565b60006001600160401b038211156125a0576125a0612455565b5060051b60200190565b600082601f8301126125bb57600080fd5b813560206125c882612587565b6040516125d5828261246b565b83815260059390931b85018201928281019150868411156125f557600080fd5b8286015b8481101561261057803583529183019183016125f9565b509695505050505050565b600080600080600060a0868803121561263357600080fd5b61263c8661232d565b945061264a6020870161232d565b935060408601356001600160401b038082111561266657600080fd5b61267289838a016125aa565b9450606088013591508082111561268857600080fd5b61269489838a016125aa565b935060808801359150808211156126aa57600080fd5b506126b788828901612497565b9150509295509295909350565b6000602082840312156126d657600080fd5b6123268261232d565b600080604083850312156126f257600080fd5b82356001600160401b038082111561270957600080fd5b818501915085601f83011261271d57600080fd5b8135602061272a82612587565b604051612737828261246b565b83815260059390931b850182019282810191508984111561275757600080fd5b948201945b8386101561277c5761276d8661232d565b8252948201949082019061275c565b9650508601359250508082111561279257600080fd5b5061279f858286016125aa565b9150509250929050565b600081518084526020808501945080840160005b838110156127d9578151875295820195908201906001016127bd565b509495945050505050565b60208152600061232660208301846127a9565b6000806040838503121561280a57600080fd5b6128138361232d565b915060208301356001600160401b0381111561282e57600080fd5b61279f85828601612497565b6000806040838503121561284d57600080fd5b82356001600160401b038082111561286457600080fd5b612870868387016125aa565b9350602085013591508082111561279257600080fd5b6000806040838503121561289957600080fd5b8235915060208301356001600160401b0381111561282e57600080fd5b600080604083850312156128c957600080fd5b6128d28361232d565b9150602083013580151581146128e757600080fd5b809150509250929050565b6000806040838503121561290557600080fd5b50508035926020909101359150565b60008060006060848603121561292957600080fd5b6129328461232d565b925060208401356001600160401b038082111561294e57600080fd5b61295a878388016125aa565b9350604086013591508082111561297057600080fd5b5061297d868287016125aa565b9150509250925092565b6000806040838503121561299a57600080fd5b6129a38361232d565b91506129b16020840161232d565b90509250929050565b600080600080600060a086880312156129d257600080fd5b6129db8661232d565b94506129e96020870161232d565b9350604086013592506060860135915060808601356001600160401b03811115612a1257600080fd5b6126b788828901612497565b600181811c90821680612a3257607f821691505b602082108103612a5257634e487b7160e01b600052602260045260246000fd5b50919050565b634e487b7160e01b600052601160045260246000fd5b8082018082111561054857610548612a58565b808202811582820484141761054857610548612a58565b601f821115610ee957600081815260208120601f850160051c81016020861015612abf5750805b601f850160051c820191505b818110156115e557828155600101612acb565b81516001600160401b03811115612af757612af7612455565b612b0b81612b058454612a1e565b84612a98565b602080601f831160018114612b405760008415612b285750858301515b600019600386901b1c1916600185901b1785556115e5565b600085815260208120601f198616915b82811015612b6f57888601518255948401946001909101908401612b50565b5085821015612b8d5787850151600019600388901b60f8161c191681555b5050505050600190811b01905550565b6020808252602f908201527f455243313135353a2063616c6c6572206973206e6f7420746f6b656e206f776e60408201526e195c881b9bdc88185c1c1c9bdd9959608a1b606082015260800190565b6020808252602c908201527f46756e6374696f6e206d7573742062652063616c6c6564207468726f7567682060408201526b19195b1959d85d1958d85b1b60a21b606082015260800190565b6020808252602c908201527f46756e6374696f6e206d7573742062652063616c6c6564207468726f7567682060408201526b6163746976652070726f787960a01b606082015260800190565b634e487b7160e01b600052603260045260246000fd5b600060018201612cac57612cac612a58565b5060010190565b60208082526021908201527f455243313135353a206d696e7420746f20746865207a65726f206164647265736040820152607360f81b606082015260800190565b6020808252602b908201527f496e697469616c697a61626c653a20636f6e7472616374206973206e6f74206960408201526a6e697469616c697a696e6760a81b606082015260800190565b60208082526028908201527f455243313135353a2069647320616e6420616d6f756e7473206c656e677468206040820152670dad2e6dac2e8c6d60c31b606082015260800190565b60208082526025908201527f455243313135353a207472616e7366657220746f20746865207a65726f206164604082015264647265737360d81b606082015260800190565b6020808252602a908201527f455243313135353a20696e73756666696369656e742062616c616e636520666f60408201526939103a3930b739b332b960b11b606082015260800190565b604081526000612e2960408301856127a9565b82810360208401526122e481856127a9565b600060208284031215612e4d57600080fd5b5051919050565b60208082526023908201527f455243313135353a206275726e2066726f6d20746865207a65726f206164647260408201526265737360e81b606082015260800190565b60208082526024908201527f455243313135353a206275726e20616d6f756e7420657863656564732062616c604082015263616e636560e01b606082015260800190565b6001600160a01b03868116825285166020820152604081018490526060810183905260a060808201819052600090612f15908301846123e3565b979650505050505050565b600060208284031215612f3257600080fd5b815161232681612373565b600060033d1115610e455760046000803e5060005160e01c90565b600060443d1015612f665790565b6040516003193d81016004833e81513d6001600160401b038160248401118184111715612f9557505050505090565b8285019150815181811115612fad5750505050505090565b843d8701016020828501011115612fc75750505050505090565b612fd66020828601018761246b565b509095945050505050565b60208082526028908201527f455243313135353a204552433131353552656365697665722072656a656374656040820152676420746f6b656e7360c01b606082015260800190565b6001600160a01b0386811682528516602082015260a060408201819052600090613055908301866127a9565b828103606084015261306781866127a9565b9050828103608084015261307b81856123e3565b98975050505050505050565b600082516130998184602087016123bf565b919091019291505056fe360894a13ba1a3210667c828492db98dca3e2076cc3735a920a3ca505d382bbc416464726573733a206c6f772d6c6576656c2064656c65676174652063616c6c206661696c6564a264697066735822122054fc48eeabe26b9e687d64089cb4ddf2db7dd699f65615bcc4000298e94f5b0764736f6c63430008110033",
  "devdoc": {
    "kind": "dev",
    "methods": {
      "balanceOf(address,uint256)": {
        "details": "See {IERC1155-balanceOf}. Requirements: - `account` cannot be the zero address."
      },
      "balanceOfBatch(address[],uint256[])": {
        "details": "See {IERC1155-balanceOfBatch}. Requirements: - `accounts` and `ids` must have the same length."
      },
      "isApprovedForAll(address,address)": {
        "details": "See {IERC1155-isApprovedForAll}."
      },
      "owner()": {
        "details": "Returns the address of the current owner."
      },
      "proxiableUUID()": {
        "details": "Implementation of the ERC1822 {proxiableUUID} function. This returns the storage slot used by the implementation. It is used to validate that the this implementation remains valid after an upgrade. IMPORTANT: A proxy pointing at a proxiable contract should not be considered proxiable itself, because this risks bricking a proxy that upgrades to it, by delegating to itself until out of gas. Thus it is critical that this function revert if invoked through a proxy. This is guaranteed by the `notDelegated` modifier."
      },
      "renounceOwnership()": {
        "details": "Leaves the contract without owner. It will not be possible to call `onlyOwner` functions anymore. Can only be called by the current owner. NOTE: Renouncing ownership will leave the contract without an owner, thereby removing any functionality that is only available to the owner."
      },
      "safeBatchTransferFrom(address,address,uint256[],uint256[],bytes)": {
        "details": "See {IERC1155-safeBatchTransferFrom}."
      },
      "safeTransferFrom(address,address,uint256,uint256,bytes)": {
        "details": "See {IERC1155-safeTransferFrom}."
      },
      "setApprovalForAll(address,bool)": {
        "details": "See {IERC1155-setApprovalForAll}."
      },
      "supportsInterface(bytes4)": {
        "details": "See {IERC165-supportsInterface}."
      },
      "transferOwnership(address)": {
        "details": "Transfers ownership of the contract to a new account (`newOwner`). Can only be called by the current owner."
      },
      "upgradeTo(address)": {
        "details": "Upgrade the implementation of the proxy to `newImplementation`. Calls {_authorizeUpgrade}. Emits an {Upgraded} event."
      },
      "upgradeToAndCall(address,bytes)": {
        "details": "Upgrade the implementation of the proxy to `newImplementation`, and subsequently execute the function call encoded in `data`. Calls {_authorizeUpgrade}. Emits an {Upgraded} event."
      }
    },
    "version": 1
  },
  "userdoc": {
    "kind": "user",
    "methods": {},
    "version": 1
  },
  "storageLayout": {
    "storage": [
      {
        "astId": 527,
        "contract": "contracts/UglyUrbanGoblin.sol:UglyUrbanGoblin",
        "label": "_initialized",
        "offset": 0,
        "slot": "0",
        "type": "t_uint8"
      },
      {
        "astId": 530,
        "contract": "contracts/UglyUrbanGoblin.sol:UglyUrbanGoblin",
        "label": "_initializing",
        "offset": 1,
        "slot": "0",
        "type": "t_bool"
      },
      {
        "astId": 509,
        "contract": "contracts/UglyUrbanGoblin.sol:UglyUrbanGoblin",
        "label": "__gap",
        "offset": 0,
        "slot": "1",
        "type": "t_array(t_uint256)50_storage"
      },
      {
        "astId": 806,
        "contract": "contracts/UglyUrbanGoblin.sol:UglyUrbanGoblin",
        "label": "__gap",
        "offset": 0,
        "slot": "51",
        "type": "t_array(t_uint256)50_storage"
      },
      {
        "astId": 2573,
        "contract": "contracts/UglyUrbanGoblin.sol:UglyUrbanGoblin",
        "label": "__gap",
        "offset": 0,
        "slot": "101",
        "type": "t_array(t_uint256)50_storage"
      },
      {
        "astId": 2677,
        "contract": "contracts/UglyUrbanGoblin.sol:UglyUrbanGoblin",
        "label": "__gap",
        "offset": 0,
        "slot": "151",
        "type": "t_array(t_uint256)50_storage"
      },
      {
        "astId": 895,
        "contract": "contracts/UglyUrbanGoblin.sol:UglyUrbanGoblin",
        "label": "_balances",
        "offset": 0,
        "slot": "201",
        "type": "t_mapping(t_uint256,t_mapping(t_address,t_uint256))"
      },
      {
        "astId": 901,
        "contract": "contracts/UglyUrbanGoblin.sol:UglyUrbanGoblin",
        "label": "_operatorApprovals",
        "offset": 0,
        "slot": "202",
        "type": "t_mapping(t_address,t_mapping(t_address,t_bool))"
      },
      {
        "astId": 903,
        "contract": "contracts/UglyUrbanGoblin.sol:UglyUrbanGoblin",
        "label": "_uri",
        "offset": 0,
        "slot": "203",
        "type": "t_string_storage"
      },
      {
        "astId": 2110,
        "contract": "contracts/UglyUrbanGoblin.sol:UglyUrbanGoblin",
        "label": "__gap",
        "offset": 0,
        "slot": "204",
        "type": "t_array(t_uint256)47_storage"
      },
      {
        "astId": 10,
        "contract": "contracts/UglyUrbanGoblin.sol:UglyUrbanGoblin",
        "label": "_owner",
        "offset": 0,
        "slot": "251",
        "type": "t_address"
      },
      {
        "astId": 130,
        "contract": "contracts/UglyUrbanGoblin.sol:UglyUrbanGoblin",
        "label": "__gap",
        "offset": 0,
        "slot": "252",
        "type": "t_array(t_uint256)49_storage"
      },
      {
        "astId": 821,
        "contract": "contracts/UglyUrbanGoblin.sol:UglyUrbanGoblin",
        "label": "_status",
        "offset": 0,
        "slot": "301",
        "type": "t_uint256"
      },
      {
        "astId": 865,
        "contract": "contracts/UglyUrbanGoblin.sol:UglyUrbanGoblin",
        "label": "__gap",
        "offset": 0,
        "slot": "302",
        "type": "t_array(t_uint256)49_storage"
      },
      {
        "astId": 2709,
        "contract": "contracts/UglyUrbanGoblin.sol:UglyUrbanGoblin",
        "label": "artPrice",
        "offset": 0,
        "slot": "351",
        "type": "t_uint256"
      },
      {
        "astId": 2711,
        "contract": "contracts/UglyUrbanGoblin.sol:UglyUrbanGoblin",
        "label": "name",
        "offset": 0,
        "slot": "352",
        "type": "t_string_storage"
      },
      {
        "astId": 2713,
        "contract": "contracts/UglyUrbanGoblin.sol:UglyUrbanGoblin",
        "label": "symbol",
        "offset": 0,
        "slot": "353",
        "type": "t_string_storage"
      },
      {
        "astId": 2715,
        "contract": "contracts/UglyUrbanGoblin.sol:UglyUrbanGoblin",
        "label": "paySplitter",
        "offset": 0,
        "slot": "354",
        "type": "t_address_payable"
      },
      {
        "astId": 2719,
        "contract": "contracts/UglyUrbanGoblin.sol:UglyUrbanGoblin",
        "label": "artSypply",
        "offset": 0,
        "slot": "355",
        "type": "t_mapping(t_uint256,t_uint256)"
      },
      {
        "astId": 2723,
        "contract": "contracts/UglyUrbanGoblin.sol:UglyUrbanGoblin",
        "label": "tokenURI",
        "offset": 0,
        "slot": "356",
        "type": "t_mapping(t_uint256,t_string_storage)"
      }
    ],
    "types": {
      "t_address": {
        "encoding": "inplace",
        "label": "address",
        "numberOfBytes": "20"
      },
      "t_address_payable": {
        "encoding": "inplace",
        "label": "address payable",
        "numberOfBytes": "20"
      },
      "t_array(t_uint256)47_storage": {
        "base": "t_uint256",
        "encoding": "inplace",
        "label": "uint256[47]",
        "numberOfBytes": "1504"
      },
      "t_array(t_uint256)49_storage": {
        "base": "t_uint256",
        "encoding": "inplace",
        "label": "uint256[49]",
        "numberOfBytes": "1568"
      },
      "t_array(t_uint256)50_storage": {
        "base": "t_uint256",
        "encoding": "inplace",
        "label": "uint256[50]",
        "numberOfBytes": "1600"
      },
      "t_bool": {
        "encoding": "inplace",
        "label": "bool",
        "numberOfBytes": "1"
      },
      "t_mapping(t_address,t_bool)": {
        "encoding": "mapping",
        "key": "t_address",
        "label": "mapping(address => bool)",
        "numberOfBytes": "32",
        "value": "t_bool"
      },
      "t_mapping(t_address,t_mapping(t_address,t_bool))": {
        "encoding": "mapping",
        "key": "t_address",
        "label": "mapping(address => mapping(address => bool))",
        "numberOfBytes": "32",
        "value": "t_mapping(t_address,t_bool)"
      },
      "t_mapping(t_address,t_uint256)": {
        "encoding": "mapping",
        "key": "t_address",
        "label": "mapping(address => uint256)",
        "numberOfBytes": "32",
        "value": "t_uint256"
      },
      "t_mapping(t_uint256,t_mapping(t_address,t_uint256))": {
        "encoding": "mapping",
        "key": "t_uint256",
        "label": "mapping(uint256 => mapping(address => uint256))",
        "numberOfBytes": "32",
        "value": "t_mapping(t_address,t_uint256)"
      },
      "t_mapping(t_uint256,t_string_storage)": {
        "encoding": "mapping",
        "key": "t_uint256",
        "label": "mapping(uint256 => string)",
        "numberOfBytes": "32",
        "value": "t_string_storage"
      },
      "t_mapping(t_uint256,t_uint256)": {
        "encoding": "mapping",
        "key": "t_uint256",
        "label": "mapping(uint256 => uint256)",
        "numberOfBytes": "32",
        "value": "t_uint256"
      },
      "t_string_storage": {
        "encoding": "bytes",
        "label": "string",
        "numberOfBytes": "32"
      },
      "t_uint256": {
        "encoding": "inplace",
        "label": "uint256",
        "numberOfBytes": "32"
      },
      "t_uint8": {
        "encoding": "inplace",
        "label": "uint8",
        "numberOfBytes": "1"
      }
    }
  }
}