{
  "address": "0xe7f1725E7734CE288F8367e1Bb143E90bb3F0512",
  "abi": [
    {
      "anonymous": false,
      "inputs": [
        {
          "indexed": false,
          "internalType": "address",
          "name": "previousAdmin",
          "type": "address"
        },
        {
          "indexed": false,
          "internalType": "address",
          "name": "newAdmin",
          "type": "address"
        }
      ],
      "name": "AdminChanged",
      "type": "event"
    },
    {
      "anonymous": false,
      "inputs": [
        {
          "indexed": true,
          "internalType": "address",
          "name": "account",
          "type": "address"
        },
        {
          "indexed": true,
          "internalType": "address",
          "name": "operator",
          "type": "address"
        },
        {
          "indexed": false,
          "internalType": "bool",
          "name": "approved",
          "type": "bool"
        }
      ],
      "name": "ApprovalForAll",
      "type": "event"
    },
    {
      "anonymous": false,
      "inputs": [
        {
          "indexed": true,
          "internalType": "address",
          "name": "beacon",
          "type": "address"
        }
      ],
      "name": "BeaconUpgraded",
      "type": "event"
    },
    {
      "anonymous": false,
      "inputs": [
        {
          "indexed": false,
          "internalType": "uint8",
          "name": "version",
          "type": "uint8"
        }
      ],
      "name": "Initialized",
      "type": "event"
    },
    {
      "anonymous": false,
      "inputs": [
        {
          "indexed": true,
          "internalType": "address",
          "name": "previousOwner",
          "type": "address"
        },
        {
          "indexed": true,
          "internalType": "address",
          "name": "newOwner",
          "type": "address"
        }
      ],
      "name": "OwnershipTransferred",
      "type": "event"
    },
    {
      "anonymous": false,
      "inputs": [
        {
          "indexed": true,
          "internalType": "address",
          "name": "operator",
          "type": "address"
        },
        {
          "indexed": true,
          "internalType": "address",
          "name": "from",
          "type": "address"
        },
        {
          "indexed": true,
          "internalType": "address",
          "name": "to",
          "type": "address"
        },
        {
          "indexed": false,
          "internalType": "uint256[]",
          "name": "ids",
          "type": "uint256[]"
        },
        {
          "indexed": false,
          "internalType": "uint256[]",
          "name": "values",
          "type": "uint256[]"
        }
      ],
      "name": "TransferBatch",
      "type": "event"
    },
    {
      "anonymous": false,
      "inputs": [
        {
          "indexed": true,
          "internalType": "address",
          "name": "operator",
          "type": "address"
        },
        {
          "indexed": true,
          "internalType": "address",
          "name": "from",
          "type": "address"
        },
        {
          "indexed": true,
          "internalType": "address",
          "name": "to",
          "type": "address"
        },
        {
          "indexed": false,
          "internalType": "uint256",
          "name": "id",
          "type": "uint256"
        },
        {
          "indexed": false,
          "internalType": "uint256",
          "name": "value",
          "type": "uint256"
        }
      ],
      "name": "TransferSingle",
      "type": "event"
    },
    {
      "anonymous": false,
      "inputs": [
        {
          "indexed": false,
          "internalType": "string",
          "name": "value",
          "type": "string"
        },
        {
          "indexed": true,
          "internalType": "uint256",
          "name": "id",
          "type": "uint256"
        }
      ],
      "name": "URI",
      "type": "event"
    },
    {
      "anonymous": false,
      "inputs": [
        {
          "indexed": true,
          "internalType": "address",
          "name": "implementation",
          "type": "address"
        }
      ],
      "name": "Upgraded",
      "type": "event"
    },
    {
      "inputs": [
        {
          "internalType": "uint256",
          "name": "artPrice_",
          "type": "uint256"
        },
        {
          "internalType": "string",
          "name": "name_",
          "type": "string"
        },
        {
          "internalType": "string",
          "name": "symbol_",
          "type": "string"
        },
        {
          "internalType": "address",
          "name": "_payment",
          "type": "address"
        }
      ],
      "name": "_initializableNFT",
      "outputs": [],
      "stateMutability": "nonpayable",
      "type": "function"
    },
    {
      "inputs": [
        {
          "internalType": "address",
          "name": "account",
          "type": "address"
        },
        {
          "internalType": "uint256",
          "name": "id",
          "type": "uint256"
        }
      ],
      "name": "balanceOf",
      "outputs": [
        {
          "internalType": "uint256",
          "name": "",
          "type": "uint256"
        }
      ],
      "stateMutability": "view",
      "type": "function"
    },
    {
      "inputs": [
        {
          "internalType": "address[]",
          "name": "accounts",
          "type": "address[]"
        },
        {
          "internalType": "uint256[]",
          "name": "ids",
          "type": "uint256[]"
        }
      ],
      "name": "balanceOfBatch",
      "outputs": [
        {
          "internalType": "uint256[]",
          "name": "",
          "type": "uint256[]"
        }
      ],
      "stateMutability": "view",
      "type": "function"
    },
    {
      "inputs": [
        {
          "internalType": "uint256",
          "name": "_id",
          "type": "uint256"
        },
        {
          "internalType": "uint256",
          "name": "_amount",
          "type": "uint256"
        }
      ],
      "name": "burn",
      "outputs": [],
      "stateMutability": "nonpayable",
      "type": "function"
    },
    {
      "inputs": [
        {
          "internalType": "uint256[]",
          "name": "_ids",
          "type": "uint256[]"
        },
        {
          "internalType": "uint256[]",
          "name": "_amounts",
          "type": "uint256[]"
        }
      ],
      "name": "burnBatch",
      "outputs": [],
      "stateMutability": "nonpayable",
      "type": "function"
    },
    {
      "inputs": [],
      "name": "getArtPrice",
      "outputs": [
        {
          "internalType": "uint256",
          "name": "",
          "type": "uint256"
        }
      ],
      "stateMutability": "view",
      "type": "function"
    },
    {
      "inputs": [
        {
          "internalType": "address",
          "name": "account",
          "type": "address"
        },
        {
          "internalType": "address",
          "name": "operator",
          "type": "address"
        }
      ],
      "name": "isApprovedForAll",
      "outputs": [
        {
          "internalType": "bool",
          "name": "",
          "type": "bool"
        }
      ],
      "stateMutability": "view",
      "type": "function"
    },
    {
      "inputs": [
        {
          "internalType": "address",
          "name": "_to",
          "type": "address"
        },
        {
          "internalType": "uint256",
          "name": "id",
          "type": "uint256"
        },
        {
          "internalType": "uint256",
          "name": "amount",
          "type": "uint256"
        }
      ],
      "name": "mint",
      "outputs": [],
      "stateMutability": "payable",
      "type": "function"
    },
    {
      "inputs": [
        {
          "internalType": "address",
          "name": "_to",
          "type": "address"
        },
        {
          "internalType": "uint256[]",
          "name": "ids",
          "type": "uint256[]"
        },
        {
          "internalType": "uint256[]",
          "name": "amounts",
          "type": "uint256[]"
        }
      ],
      "name": "mintBatch",
      "outputs": [],
      "stateMutability": "nonpayable",
      "type": "function"
    },
    {
      "inputs": [],
      "name": "owner",
      "outputs": [
        {
          "internalType": "address",
          "name": "",
          "type": "address"
        }
      ],
      "stateMutability": "view",
      "type": "function"
    },
    {
      "inputs": [],
      "name": "proxiableUUID",
      "outputs": [
        {
          "internalType": "bytes32",
          "name": "",
          "type": "bytes32"
        }
      ],
      "stateMutability": "view",
      "type": "function"
    },
    {
      "inputs": [],
      "name": "renounceOwnership",
      "outputs": [],
      "stateMutability": "nonpayable",
      "type": "function"
    },
    {
      "inputs": [
        {
          "internalType": "address",
          "name": "from",
          "type": "address"
        },
        {
          "internalType": "address",
          "name": "to",
          "type": "address"
        },
        {
          "internalType": "uint256[]",
          "name": "ids",
          "type": "uint256[]"
        },
        {
          "internalType": "uint256[]",
          "name": "amounts",
          "type": "uint256[]"
        },
        {
          "internalType": "bytes",
          "name": "data",
          "type": "bytes"
        }
      ],
      "name": "safeBatchTransferFrom",
      "outputs": [],
      "stateMutability": "nonpayable",
      "type": "function"
    },
    {
      "inputs": [
        {
          "internalType": "address",
          "name": "from",
          "type": "address"
        },
        {
          "internalType": "address",
          "name": "to",
          "type": "address"
        },
        {
          "internalType": "uint256",
          "name": "id",
          "type": "uint256"
        },
        {
          "internalType": "uint256",
          "name": "amount",
          "type": "uint256"
        },
        {
          "internalType": "bytes",
          "name": "data",
          "type": "bytes"
        }
      ],
      "name": "safeTransferFrom",
      "outputs": [],
      "stateMutability": "nonpayable",
      "type": "function"
    },
    {
      "inputs": [
        {
          "internalType": "address",
          "name": "operator",
          "type": "address"
        },
        {
          "internalType": "bool",
          "name": "approved",
          "type": "bool"
        }
      ],
      "name": "setApprovalForAll",
      "outputs": [],
      "stateMutability": "nonpayable",
      "type": "function"
    },
    {
      "inputs": [
        {
          "internalType": "uint256",
          "name": "_id",
          "type": "uint256"
        },
        {
          "internalType": "string",
          "name": "_uri",
          "type": "string"
        }
      ],
      "name": "setURI",
      "outputs": [],
      "stateMutability": "nonpayable",
      "type": "function"
    },
    {
      "inputs": [
        {
          "internalType": "bytes4",
          "name": "interfaceId",
          "type": "bytes4"
        }
      ],
      "name": "supportsInterface",
      "outputs": [
        {
          "internalType": "bool",
          "name": "",
          "type": "bool"
        }
      ],
      "stateMutability": "view",
      "type": "function"
    },
    {
      "inputs": [
        {
          "internalType": "uint256",
          "name": "id_",
          "type": "uint256"
        }
      ],
      "name": "totalArtSupply",
      "outputs": [
        {
          "internalType": "uint256",
          "name": "",
          "type": "uint256"
        }
      ],
      "stateMutability": "view",
      "type": "function"
    },
    {
      "inputs": [
        {
          "internalType": "address",
          "name": "newOwner",
          "type": "address"
        }
      ],
      "name": "transferOwnership",
      "outputs": [],
      "stateMutability": "nonpayable",
      "type": "function"
    },
    {
      "inputs": [
        {
          "internalType": "uint256",
          "name": "_newPrice",
          "type": "uint256"
        }
      ],
      "name": "updateArtPrice",
      "outputs": [],
      "stateMutability": "nonpayable",
      "type": "function"
    },
    {
      "inputs": [
        {
          "internalType": "address",
          "name": "newImplementation",
          "type": "address"
        }
      ],
      "name": "upgradeTo",
      "outputs": [],
      "stateMutability": "nonpayable",
      "type": "function"
    },
    {
      "inputs": [
        {
          "internalType": "address",
          "name": "newImplementation",
          "type": "address"
        },
        {
          "internalType": "bytes",
          "name": "data",
          "type": "bytes"
        }
      ],
      "name": "upgradeToAndCall",
      "outputs": [],
      "stateMutability": "payable",
      "type": "function"
    },
    {
      "inputs": [
        {
          "internalType": "uint256",
          "name": "_id",
          "type": "uint256"
        }
      ],
      "name": "uri",
      "outputs": [
        {
          "internalType": "string",
          "name": "",
          "type": "string"
        }
      ],
      "stateMutability": "view",
      "type": "function"
    }
  ],
  "transactionHash": "0xe5b3bf009767d53ba623fd85c9b9c7826a83d47373657958771c7279fba4efa4",
  "args": [],
  "numDeployments": 1,
  "solcInputHash": "6e299e49b919f087a841cce692456bf9",
  "bytecode": "0x60a06040523060805234801561001457600080fd5b5060805161302f61004c600039600081816109da01528181610a1a01528181610be201528181610c220152610cb5015261302f6000f3fe60806040526004361061013e5760003560e01c80636cd2280f116100b6578063b390c0ab1161006f578063b390c0ab1461037a578063d81d0a151461039a578063e985e9c5146103ba578063f242432a14610403578063f2fde38b14610423578063f74610f91461044357600080fd5b80636cd2280f146102af578063715018a6146102dd57806383ca4b6f146102f2578063862440e2146103125780638da5cb5b14610332578063a22cb4651461035a57600080fd5b80632e204d47116101085780632e204d47146101fa5780632eb2c2d61461021a5780633659cfe61461023a5780634e1273f41461025a5780634f1ef2861461028757806352d1902d1461029a57600080fd5b806216c62014610143578062fdd58e1461016857806301ffc9a7146101885780630e89341c146101b8578063156e29f6146101e5575b600080fd5b34801561014f57600080fd5b5061015f545b6040519081526020015b60405180910390f35b34801561017457600080fd5b50610155610183366004612258565b610463565b34801561019457600080fd5b506101a86101a3366004612298565b6104fe565b604051901515815260200161015f565b3480156101c457600080fd5b506101d86101d33660046122b5565b61054e565b60405161015f919061231e565b6101f86101f3366004612331565b6105f8565b005b34801561020657600080fd5b506101f8610215366004612419565b610810565b34801561022657600080fd5b506101f861023536600461252a565b61098b565b34801561024657600080fd5b506101f86102553660046125d3565b6109d0565b34801561026657600080fd5b5061027a6102753660046125ee565b610aaf565b60405161015f91906126f3565b6101f8610295366004612706565b610bd8565b3480156102a657600080fd5b50610155610ca8565b3480156102bb57600080fd5b506101556102ca3660046122b5565b6000908152610163602052604090205490565b3480156102e957600080fd5b506101f8610d5c565b3480156102fe57600080fd5b506101f861030d366004612749565b610d70565b34801561031e57600080fd5b506101f861032d366004612795565b610e02565b34801561033e57600080fd5b5060fb546040516001600160a01b03909116815260200161015f565b34801561036657600080fd5b506101f86103753660046127c5565b610e60565b34801561038657600080fd5b506101f8610395366004612801565b610e6b565b3480156103a657600080fd5b506101f86103b5366004612823565b610ecf565b3480156103c657600080fd5b506101a86103d5366004612896565b6001600160a01b03918216600090815260ca6020908152604080832093909416825291909152205460ff1690565b34801561040f57600080fd5b506101f861041e3660046128c9565b6110d5565b34801561042f57600080fd5b506101f861043e3660046125d3565b61111a565b34801561044f57600080fd5b506101f861045e3660046122b5565b611190565b60006001600160a01b0383166104d35760405162461bcd60e51b815260206004820152602a60248201527f455243313135353a2061646472657373207a65726f206973206e6f742061207660448201526930b634b21037bbb732b960b11b60648201526084015b60405180910390fd5b50600081815260c9602090815260408083206001600160a01b03861684529091529020545b92915050565b60006001600160e01b03198216636cdb3d1360e11b148061052f57506001600160e01b031982166303a24d0760e21b145b806104f857506301ffc9a760e01b6001600160e01b03198316146104f8565b606061055861119e565b60008281526101646020526040902080546105729061292d565b80601f016020809104026020016040519081016040528092919081815260200182805461059e9061292d565b80156105eb5780601f106105c0576101008083540402835291602001916105eb565b820191906000526020600020905b8154815290600101906020018083116105ce57829003601f168201915b505050505090505b919050565b600261012d540361064b5760405162461bcd60e51b815260206004820152601f60248201527f5265656e7472616e637947756172643a207265656e7472616e742063616c6c0060448201526064016104ca565b600261012d558061069e5760405162461bcd60e51b815260206004820152601a60248201527f4d696e743a20616d6f756e742f54782070726f6869626974656400000000000060448201526064016104ca565b6064816106ab8585610463565b6106b5919061297d565b11156107035760405162461bcd60e51b815260206004820152601760248201527f4d696e743a20537570706c792f5478207265616368656400000000000000000060448201526064016104ca565b600082815261016360205260409020546103e810156107645760405162461bcd60e51b815260206004820152601c60248201527f4d696e743a20417274206d617820737570706c7920726561636865640000000060448201526064016104ca565b8061015f546107739190612990565b3410156107bb5760405162461bcd60e51b81526020600482015260166024820152754d696e743a204e65656473206d6f72652066756e647360501b60448201526064016104ca565b60008281526101636020526040812080548392906107da90849061297d565b925050819055506107fc838383604051806020016040528060008152506111f8565b610805346112d4565b5050600161012d5550565b600054610100900460ff16158080156108305750600054600160ff909116105b8061084a5750303b15801561084a575060005460ff166001145b6108ad5760405162461bcd60e51b815260206004820152602e60248201527f496e697469616c697a61626c653a20636f6e747261637420697320616c72656160448201526d191e481a5b9a5d1a585b1a5e995960921b60648201526084016104ca565b6000805460ff1916600117905580156108d0576000805461ff0019166101001790555b61015f8590556101606108e385826129ed565b506101616108f184826129ed565b5061016280546001600160a01b0319166001600160a01b038416179055610916611307565b61091e611336565b61092661135d565b61093e6040518060200160405280600081525061138c565b8015610984576000805461ff0019169055604051600181527f7f26b83ff96e1f2b6a682f133852f6798a09c465da95921460cefb38474024989060200160405180910390a15b5050505050565b6001600160a01b0385163314806109a757506109a785336103d5565b6109c35760405162461bcd60e51b81526004016104ca90612aac565b61098485858585856113bc565b6001600160a01b037f0000000000000000000000000000000000000000000000000000000000000000163003610a185760405162461bcd60e51b81526004016104ca90612afb565b7f00000000000000000000000000000000000000000000000000000000000000006001600160a01b0316610a61600080516020612fb3833981519152546001600160a01b031690565b6001600160a01b031614610a875760405162461bcd60e51b81526004016104ca90612b47565b610a908161155b565b60408051600080825260208201909252610aac91839190611563565b50565b60608151835114610b145760405162461bcd60e51b815260206004820152602960248201527f455243313135353a206163636f756e747320616e6420696473206c656e677468604482015268040dad2e6dac2e8c6d60bb1b60648201526084016104ca565b600083516001600160401b03811115610b2f57610b2f612364565b604051908082528060200260200182016040528015610b58578160200160208202803683370190505b50905060005b8451811015610bd057610ba3858281518110610b7c57610b7c612b93565b6020026020010151858381518110610b9657610b96612b93565b6020026020010151610463565b828281518110610bb557610bb5612b93565b6020908102919091010152610bc981612ba9565b9050610b5e565b509392505050565b6001600160a01b037f0000000000000000000000000000000000000000000000000000000000000000163003610c205760405162461bcd60e51b81526004016104ca90612afb565b7f00000000000000000000000000000000000000000000000000000000000000006001600160a01b0316610c69600080516020612fb3833981519152546001600160a01b031690565b6001600160a01b031614610c8f5760405162461bcd60e51b81526004016104ca90612b47565b610c988261155b565b610ca482826001611563565b5050565b6000306001600160a01b037f00000000000000000000000000000000000000000000000000000000000000001614610d485760405162461bcd60e51b815260206004820152603860248201527f555550535570677261646561626c653a206d757374206e6f742062652063616c60448201527f6c6564207468726f7567682064656c656761746563616c6c000000000000000060648201526084016104ca565b50600080516020612fb38339815191525b90565b610d6461119e565b610d6e60006116ce565b565b60005b82518110610dfd576000610d9333858481518110610b9657610b96612b93565b11610de05760405162461bcd60e51b815260206004820152601e60248201527f42415443485f4255524e20596f75277265206e6f7420616e204f776e6572000060448201526064016104ca565b610deb338484611720565b80610df581612ba9565b915050610d73565b505050565b610e0a61119e565b600082815261016460205260409020610e2382826129ed565b50817f6bb7ff708619ba0610cba295a58592e0451dee2622938c8755667688daf3529b82604051610e54919061231e565b60405180910390a25050565b610ca43383836118af565b6000610e773384610463565b11610ec45760405162461bcd60e51b815260206004820152601860248201527f4255524e20596f75277265206e6f7420616e204f776e6572000000000000000060448201526064016104ca565b610ca433838361198f565b610ed761119e565b60005b82518110156110b9578251825114610f475760405162461bcd60e51b815260206004820152602a60248201527f4d696e7442617463683a20616d6f756e747320616e6420696473206c656e67746044820152690d040dad2e6dac2e8c6d60b31b60648201526084016104ca565b6000828281518110610f5b57610f5b612b93565b6020026020010151118015610f8957506065828281518110610f7f57610f7f612b93565b6020026020010151105b610fd55760405162461bcd60e51b815260206004820152601f60248201527f4d696e7442617463683a20616d6f756e742f54782070726f686962697465640060448201526064016104ca565b6000838281518110610fe957610fe9612b93565b602002602001015190506103e8610163600083815260200190815260200160002054106110625760405162461bcd60e51b815260206004820152602160248201527f4d696e7442617463683a20417274206d617820737570706c79207265616368656044820152601960fa1b60648201526084016104ca565b82828151811061107457611074612b93565b60200260200101516101636000838152602001908152602001600020600082825461109f919061297d565b909155508291506110b1905081612ba9565b915050610eda565b50610dfd83838360405180602001604052806000815250611a96565b6001600160a01b0385163314806110f157506110f185336103d5565b61110d5760405162461bcd60e51b81526004016104ca90612aac565b6109848585858585611be2565b61112261119e565b6001600160a01b0381166111875760405162461bcd60e51b815260206004820152602660248201527f4f776e61626c653a206e6577206f776e657220697320746865207a65726f206160448201526564647265737360d01b60648201526084016104ca565b610aac816116ce565b61119861119e565b61015f55565b60fb546001600160a01b03163314610d6e5760405162461bcd60e51b815260206004820181905260248201527f4f776e61626c653a2063616c6c6572206973206e6f7420746865206f776e657260448201526064016104ca565b6001600160a01b03841661121e5760405162461bcd60e51b81526004016104ca90612bc2565b33600061122a85611d10565b9050600061123785611d10565b9050600086815260c9602090815260408083206001600160a01b038b1684529091528120805487929061126b90849061297d565b909155505060408051878152602081018790526001600160a01b03808a1692600092918716917fc3d58168c5ae7397731d063d5bbf3d657854427343f4c083240f7aacaa2d0f62910160405180910390a46112cb83600089898989611d5b565b50505050505050565b610162546040516001600160a01b039091169082156108fc029083906000818181858888f19350505050610aac57600080fd5b600054610100900460ff1661132e5760405162461bcd60e51b81526004016104ca90612c03565b610d6e611eb6565b600054610100900460ff16610d6e5760405162461bcd60e51b81526004016104ca90612c03565b600054610100900460ff166113845760405162461bcd60e51b81526004016104ca90612c03565b610d6e611ee6565b600054610100900460ff166113b35760405162461bcd60e51b81526004016104ca90612c03565b610aac81611f15565b81518351146113dd5760405162461bcd60e51b81526004016104ca90612c4e565b6001600160a01b0384166114035760405162461bcd60e51b81526004016104ca90612c96565b3360005b84518110156114ed57600085828151811061142457611424612b93565b60200260200101519050600085838151811061144257611442612b93565b602090810291909101810151600084815260c9835260408082206001600160a01b038e1683529093529190912054909150818110156114935760405162461bcd60e51b81526004016104ca90612cdb565b600083815260c9602090815260408083206001600160a01b038e8116855292528083208585039055908b168252812080548492906114d290849061297d565b92505081905550505050806114e690612ba9565b9050611407565b50846001600160a01b0316866001600160a01b0316826001600160a01b03167f4a39dc06d4c0dbc64b70af90fd698a233a518aa5d07e595d983b8c0526c8f7fb878760405161153d929190612d25565b60405180910390a4611553818787878787611f45565b505050505050565b610aac61119e565b7f4910fdfa16fed3260ed0e7147f7cc6da11a60208b5b9406d12a635614ffd91435460ff161561159657610dfd83612000565b826001600160a01b03166352d1902d6040518163ffffffff1660e01b8152600401602060405180830381865afa9250505080156115f0575060408051601f3d908101601f191682019092526115ed91810190612d4a565b60015b6116535760405162461bcd60e51b815260206004820152602e60248201527f45524331393637557067726164653a206e657720696d706c656d656e7461746960448201526d6f6e206973206e6f74205555505360901b60648201526084016104ca565b600080516020612fb383398151915281146116c25760405162461bcd60e51b815260206004820152602960248201527f45524331393637557067726164653a20756e737570706f727465642070726f786044820152681a58589b195555525160ba1b60648201526084016104ca565b50610dfd83838361209c565b60fb80546001600160a01b038381166001600160a01b0319831681179093556040519116919082907f8be0079c531659141344cd1fd0a4f28419497f9722a3daafe3b4186f6b6457e090600090a35050565b6001600160a01b0383166117465760405162461bcd60e51b81526004016104ca90612d63565b80518251146117675760405162461bcd60e51b81526004016104ca90612c4e565b604080516020810190915260009081905233905b835181101561184057600084828151811061179857611798612b93565b6020026020010151905060008483815181106117b6576117b6612b93565b602090810291909101810151600084815260c9835260408082206001600160a01b038c1683529093529190912054909150818110156118075760405162461bcd60e51b81526004016104ca90612da6565b600092835260c9602090815260408085206001600160a01b038b168652909152909220910390558061183881612ba9565b91505061177b565b5060006001600160a01b0316846001600160a01b0316826001600160a01b03167f4a39dc06d4c0dbc64b70af90fd698a233a518aa5d07e595d983b8c0526c8f7fb8686604051611891929190612d25565b60405180910390a46040805160208101909152600090525b50505050565b816001600160a01b0316836001600160a01b0316036119225760405162461bcd60e51b815260206004820152602960248201527f455243313135353a2073657474696e6720617070726f76616c20737461747573604482015268103337b91039b2b63360b91b60648201526084016104ca565b6001600160a01b03838116600081815260ca6020908152604080832094871680845294825291829020805460ff191686151590811790915591519182527f17307eab39ab6107e8899845ad3d59bd9653f200f220920489ca2b5937696c31910160405180910390a3505050565b6001600160a01b0383166119b55760405162461bcd60e51b81526004016104ca90612d63565b3360006119c184611d10565b905060006119ce84611d10565b604080516020808201835260009182905288825260c981528282206001600160a01b038b1683529052205490915084811015611a1c5760405162461bcd60e51b81526004016104ca90612da6565b600086815260c9602090815260408083206001600160a01b038b81168086529184528285208a8703905582518b81529384018a90529092908816917fc3d58168c5ae7397731d063d5bbf3d657854427343f4c083240f7aacaa2d0f62910160405180910390a46040805160208101909152600090526112cb565b6001600160a01b038416611abc5760405162461bcd60e51b81526004016104ca90612bc2565b8151835114611add5760405162461bcd60e51b81526004016104ca90612c4e565b3360005b8451811015611b7a57838181518110611afc57611afc612b93565b602002602001015160c96000878481518110611b1a57611b1a612b93565b602002602001015181526020019081526020016000206000886001600160a01b03166001600160a01b031681526020019081526020016000206000828254611b62919061297d565b90915550819050611b7281612ba9565b915050611ae1565b50846001600160a01b031660006001600160a01b0316826001600160a01b03167f4a39dc06d4c0dbc64b70af90fd698a233a518aa5d07e595d983b8c0526c8f7fb8787604051611bcb929190612d25565b60405180910390a461098481600087878787611f45565b6001600160a01b038416611c085760405162461bcd60e51b81526004016104ca90612c96565b336000611c1485611d10565b90506000611c2185611d10565b9050600086815260c9602090815260408083206001600160a01b038c16845290915290205485811015611c665760405162461bcd60e51b81526004016104ca90612cdb565b600087815260c9602090815260408083206001600160a01b038d8116855292528083208985039055908a16825281208054889290611ca590849061297d565b909155505060408051888152602081018890526001600160a01b03808b16928c821692918816917fc3d58168c5ae7397731d063d5bbf3d657854427343f4c083240f7aacaa2d0f62910160405180910390a4611d05848a8a8a8a8a611d5b565b505050505050505050565b60408051600180825281830190925260609160009190602080830190803683370190505090508281600081518110611d4a57611d4a612b93565b602090810291909101015292915050565b6001600160a01b0384163b156115535760405163f23a6e6160e01b81526001600160a01b0385169063f23a6e6190611d9f9089908990889088908890600401612dea565b6020604051808303816000875af1925050508015611dda575060408051601f3d908101601f19168201909252611dd791810190612e2f565b60015b611e8657611de6612e4c565b806308c379a003611e1f5750611dfa612e67565b80611e055750611e21565b8060405162461bcd60e51b81526004016104ca919061231e565b505b60405162461bcd60e51b815260206004820152603460248201527f455243313135353a207472616e7366657220746f206e6f6e20455243313135356044820152732932b1b2b4bb32b91034b6b83632b6b2b73a32b960611b60648201526084016104ca565b6001600160e01b0319811663f23a6e6160e01b146112cb5760405162461bcd60e51b81526004016104ca90612ef0565b600054610100900460ff16611edd5760405162461bcd60e51b81526004016104ca90612c03565b610d6e336116ce565b600054610100900460ff16611f0d5760405162461bcd60e51b81526004016104ca90612c03565b600161012d55565b600054610100900460ff16611f3c5760405162461bcd60e51b81526004016104ca90612c03565b610aac816120c1565b6001600160a01b0384163b156115535760405163bc197c8160e01b81526001600160a01b0385169063bc197c8190611f899089908990889088908890600401612f38565b6020604051808303816000875af1925050508015611fc4575060408051601f3d908101601f19168201909252611fc191810190612e2f565b60015b611fd057611de6612e4c565b6001600160e01b0319811663bc197c8160e01b146112cb5760405162461bcd60e51b81526004016104ca90612ef0565b6001600160a01b0381163b61206d5760405162461bcd60e51b815260206004820152602d60248201527f455243313936373a206e657720696d706c656d656e746174696f6e206973206e60448201526c1bdd08184818dbdb9d1c9858dd609a1b60648201526084016104ca565b600080516020612fb383398151915280546001600160a01b0319166001600160a01b0392909216919091179055565b6120a5836120cd565b6000825111806120b25750805b15610dfd576118a9838361210d565b60cb610ca482826129ed565b6120d681612000565b6040516001600160a01b038216907fbc7cd75a20ee27fd9adebab32041f755214dbc6bffa90cc0225b39da2e5c2d3b90600090a250565b60606001600160a01b0383163b6121755760405162461bcd60e51b815260206004820152602660248201527f416464726573733a2064656c65676174652063616c6c20746f206e6f6e2d636f6044820152651b9d1c9858dd60d21b60648201526084016104ca565b600080846001600160a01b0316846040516121909190612f96565b600060405180830381855af49150503d80600081146121cb576040519150601f19603f3d011682016040523d82523d6000602084013e6121d0565b606091505b50915091506121f88282604051806060016040528060278152602001612fd360279139612201565b95945050505050565b6060831561221057508161223a565b8251156122205782518084602001fd5b8160405162461bcd60e51b81526004016104ca919061231e565b9392505050565b80356001600160a01b03811681146105f357600080fd5b6000806040838503121561226b57600080fd5b61227483612241565b946020939093013593505050565b6001600160e01b031981168114610aac57600080fd5b6000602082840312156122aa57600080fd5b813561223a81612282565b6000602082840312156122c757600080fd5b5035919050565b60005b838110156122e95781810151838201526020016122d1565b50506000910152565b6000815180845261230a8160208601602086016122ce565b601f01601f19169290920160200192915050565b60208152600061223a60208301846122f2565b60008060006060848603121561234657600080fd5b61234f84612241565b95602085013595506040909401359392505050565b634e487b7160e01b600052604160045260246000fd5b601f8201601f191681016001600160401b038111828210171561239f5761239f612364565b6040525050565b600082601f8301126123b757600080fd5b81356001600160401b038111156123d0576123d0612364565b6040516123e7601f8301601f19166020018261237a565b8181528460208386010111156123fc57600080fd5b816020850160208301376000918101602001919091529392505050565b6000806000806080858703121561242f57600080fd5b8435935060208501356001600160401b038082111561244d57600080fd5b612459888389016123a6565b9450604087013591508082111561246f57600080fd5b5061247c878288016123a6565b92505061248b60608601612241565b905092959194509250565b60006001600160401b038211156124af576124af612364565b5060051b60200190565b600082601f8301126124ca57600080fd5b813560206124d782612496565b6040516124e4828261237a565b83815260059390931b850182019282810191508684111561250457600080fd5b8286015b8481101561251f5780358352918301918301612508565b509695505050505050565b600080600080600060a0868803121561254257600080fd5b61254b86612241565b945061255960208701612241565b935060408601356001600160401b038082111561257557600080fd5b61258189838a016124b9565b9450606088013591508082111561259757600080fd5b6125a389838a016124b9565b935060808801359150808211156125b957600080fd5b506125c6888289016123a6565b9150509295509295909350565b6000602082840312156125e557600080fd5b61223a82612241565b6000806040838503121561260157600080fd5b82356001600160401b038082111561261857600080fd5b818501915085601f83011261262c57600080fd5b8135602061263982612496565b604051612646828261237a565b83815260059390931b850182019282810191508984111561266657600080fd5b948201945b8386101561268b5761267c86612241565b8252948201949082019061266b565b965050860135925050808211156126a157600080fd5b506126ae858286016124b9565b9150509250929050565b600081518084526020808501945080840160005b838110156126e8578151875295820195908201906001016126cc565b509495945050505050565b60208152600061223a60208301846126b8565b6000806040838503121561271957600080fd5b61272283612241565b915060208301356001600160401b0381111561273d57600080fd5b6126ae858286016123a6565b6000806040838503121561275c57600080fd5b82356001600160401b038082111561277357600080fd5b61277f868387016124b9565b935060208501359150808211156126a157600080fd5b600080604083850312156127a857600080fd5b8235915060208301356001600160401b0381111561273d57600080fd5b600080604083850312156127d857600080fd5b6127e183612241565b9150602083013580151581146127f657600080fd5b809150509250929050565b6000806040838503121561281457600080fd5b50508035926020909101359150565b60008060006060848603121561283857600080fd5b61284184612241565b925060208401356001600160401b038082111561285d57600080fd5b612869878388016124b9565b9350604086013591508082111561287f57600080fd5b5061288c868287016124b9565b9150509250925092565b600080604083850312156128a957600080fd5b6128b283612241565b91506128c060208401612241565b90509250929050565b600080600080600060a086880312156128e157600080fd5b6128ea86612241565b94506128f860208701612241565b9350604086013592506060860135915060808601356001600160401b0381111561292157600080fd5b6125c6888289016123a6565b600181811c9082168061294157607f821691505b60208210810361296157634e487b7160e01b600052602260045260246000fd5b50919050565b634e487b7160e01b600052601160045260246000fd5b808201808211156104f8576104f8612967565b80820281158282048414176104f8576104f8612967565b601f821115610dfd57600081815260208120601f850160051c810160208610156129ce5750805b601f850160051c820191505b81811015611553578281556001016129da565b81516001600160401b03811115612a0657612a06612364565b612a1a81612a14845461292d565b846129a7565b602080601f831160018114612a4f5760008415612a375750858301515b600019600386901b1c1916600185901b178555611553565b600085815260208120601f198616915b82811015612a7e57888601518255948401946001909101908401612a5f565b5085821015612a9c5787850151600019600388901b60f8161c191681555b5050505050600190811b01905550565b6020808252602f908201527f455243313135353a2063616c6c6572206973206e6f7420746f6b656e206f776e60408201526e195c881b9bdc88185c1c1c9bdd9959608a1b606082015260800190565b6020808252602c908201527f46756e6374696f6e206d7573742062652063616c6c6564207468726f7567682060408201526b19195b1959d85d1958d85b1b60a21b606082015260800190565b6020808252602c908201527f46756e6374696f6e206d7573742062652063616c6c6564207468726f7567682060408201526b6163746976652070726f787960a01b606082015260800190565b634e487b7160e01b600052603260045260246000fd5b600060018201612bbb57612bbb612967565b5060010190565b60208082526021908201527f455243313135353a206d696e7420746f20746865207a65726f206164647265736040820152607360f81b606082015260800190565b6020808252602b908201527f496e697469616c697a61626c653a20636f6e7472616374206973206e6f74206960408201526a6e697469616c697a696e6760a81b606082015260800190565b60208082526028908201527f455243313135353a2069647320616e6420616d6f756e7473206c656e677468206040820152670dad2e6dac2e8c6d60c31b606082015260800190565b60208082526025908201527f455243313135353a207472616e7366657220746f20746865207a65726f206164604082015264647265737360d81b606082015260800190565b6020808252602a908201527f455243313135353a20696e73756666696369656e742062616c616e636520666f60408201526939103a3930b739b332b960b11b606082015260800190565b604081526000612d3860408301856126b8565b82810360208401526121f881856126b8565b600060208284031215612d5c57600080fd5b5051919050565b60208082526023908201527f455243313135353a206275726e2066726f6d20746865207a65726f206164647260408201526265737360e81b606082015260800190565b60208082526024908201527f455243313135353a206275726e20616d6f756e7420657863656564732062616c604082015263616e636560e01b606082015260800190565b6001600160a01b03868116825285166020820152604081018490526060810183905260a060808201819052600090612e24908301846122f2565b979650505050505050565b600060208284031215612e4157600080fd5b815161223a81612282565b600060033d1115610d595760046000803e5060005160e01c90565b600060443d1015612e755790565b6040516003193d81016004833e81513d6001600160401b038160248401118184111715612ea457505050505090565b8285019150815181811115612ebc5750505050505090565b843d8701016020828501011115612ed65750505050505090565b612ee56020828601018761237a565b509095945050505050565b60208082526028908201527f455243313135353a204552433131353552656365697665722072656a656374656040820152676420746f6b656e7360c01b606082015260800190565b6001600160a01b0386811682528516602082015260a060408201819052600090612f64908301866126b8565b8281036060840152612f7681866126b8565b90508281036080840152612f8a81856122f2565b98975050505050505050565b60008251612fa88184602087016122ce565b919091019291505056fe360894a13ba1a3210667c828492db98dca3e2076cc3735a920a3ca505d382bbc416464726573733a206c6f772d6c6576656c2064656c65676174652063616c6c206661696c6564a26469706673582212206a31ab1a4d66a3f8674c93cee84c3b4eb3c2f1332b9fdc0504b60593e4116cb764736f6c63430008110033",
  "devdoc": {
    "kind": "dev",
    "methods": {
      "balanceOf(address,uint256)": {
        "details": "See {IERC1155-balanceOf}. Requirements: - `account` cannot be the zero address."
      },
      "balanceOfBatch(address[],uint256[])": {
        "details": "See {IERC1155-balanceOfBatch}. Requirements: - `accounts` and `ids` must have the same length."
      },
      "isApprovedForAll(address,address)": {
        "details": "See {IERC1155-isApprovedForAll}."
      },
      "owner()": {
        "details": "Returns the address of the current owner."
      },
      "proxiableUUID()": {
        "details": "Implementation of the ERC1822 {proxiableUUID} function. This returns the storage slot used by the implementation. It is used to validate that the this implementation remains valid after an upgrade. IMPORTANT: A proxy pointing at a proxiable contract should not be considered proxiable itself, because this risks bricking a proxy that upgrades to it, by delegating to itself until out of gas. Thus it is critical that this function revert if invoked through a proxy. This is guaranteed by the `notDelegated` modifier."
      },
      "renounceOwnership()": {
        "details": "Leaves the contract without owner. It will not be possible to call `onlyOwner` functions anymore. Can only be called by the current owner. NOTE: Renouncing ownership will leave the contract without an owner, thereby removing any functionality that is only available to the owner."
      },
      "safeBatchTransferFrom(address,address,uint256[],uint256[],bytes)": {
        "details": "See {IERC1155-safeBatchTransferFrom}."
      },
      "safeTransferFrom(address,address,uint256,uint256,bytes)": {
        "details": "See {IERC1155-safeTransferFrom}."
      },
      "setApprovalForAll(address,bool)": {
        "details": "See {IERC1155-setApprovalForAll}."
      },
      "supportsInterface(bytes4)": {
        "details": "See {IERC165-supportsInterface}."
      },
      "transferOwnership(address)": {
        "details": "Transfers ownership of the contract to a new account (`newOwner`). Can only be called by the current owner."
      },
      "upgradeTo(address)": {
        "details": "Upgrade the implementation of the proxy to `newImplementation`. Calls {_authorizeUpgrade}. Emits an {Upgraded} event."
      },
      "upgradeToAndCall(address,bytes)": {
        "details": "Upgrade the implementation of the proxy to `newImplementation`, and subsequently execute the function call encoded in `data`. Calls {_authorizeUpgrade}. Emits an {Upgraded} event."
      }
    },
    "version": 1
  },
  "userdoc": {
    "kind": "user",
    "methods": {},
    "version": 1
  },
  "storageLayout": {
    "storage": [
      {
        "astId": 527,
        "contract": "contracts/UglyUrbanGoblin.sol:UglyUrbanGoblin",
        "label": "_initialized",
        "offset": 0,
        "slot": "0",
        "type": "t_uint8"
      },
      {
        "astId": 530,
        "contract": "contracts/UglyUrbanGoblin.sol:UglyUrbanGoblin",
        "label": "_initializing",
        "offset": 1,
        "slot": "0",
        "type": "t_bool"
      },
      {
        "astId": 509,
        "contract": "contracts/UglyUrbanGoblin.sol:UglyUrbanGoblin",
        "label": "__gap",
        "offset": 0,
        "slot": "1",
        "type": "t_array(t_uint256)50_storage"
      },
      {
        "astId": 806,
        "contract": "contracts/UglyUrbanGoblin.sol:UglyUrbanGoblin",
        "label": "__gap",
        "offset": 0,
        "slot": "51",
        "type": "t_array(t_uint256)50_storage"
      },
      {
        "astId": 2573,
        "contract": "contracts/UglyUrbanGoblin.sol:UglyUrbanGoblin",
        "label": "__gap",
        "offset": 0,
        "slot": "101",
        "type": "t_array(t_uint256)50_storage"
      },
      {
        "astId": 2677,
        "contract": "contracts/UglyUrbanGoblin.sol:UglyUrbanGoblin",
        "label": "__gap",
        "offset": 0,
        "slot": "151",
        "type": "t_array(t_uint256)50_storage"
      },
      {
        "astId": 895,
        "contract": "contracts/UglyUrbanGoblin.sol:UglyUrbanGoblin",
        "label": "_balances",
        "offset": 0,
        "slot": "201",
        "type": "t_mapping(t_uint256,t_mapping(t_address,t_uint256))"
      },
      {
        "astId": 901,
        "contract": "contracts/UglyUrbanGoblin.sol:UglyUrbanGoblin",
        "label": "_operatorApprovals",
        "offset": 0,
        "slot": "202",
        "type": "t_mapping(t_address,t_mapping(t_address,t_bool))"
      },
      {
        "astId": 903,
        "contract": "contracts/UglyUrbanGoblin.sol:UglyUrbanGoblin",
        "label": "_uri",
        "offset": 0,
        "slot": "203",
        "type": "t_string_storage"
      },
      {
        "astId": 2110,
        "contract": "contracts/UglyUrbanGoblin.sol:UglyUrbanGoblin",
        "label": "__gap",
        "offset": 0,
        "slot": "204",
        "type": "t_array(t_uint256)47_storage"
      },
      {
        "astId": 10,
        "contract": "contracts/UglyUrbanGoblin.sol:UglyUrbanGoblin",
        "label": "_owner",
        "offset": 0,
        "slot": "251",
        "type": "t_address"
      },
      {
        "astId": 130,
        "contract": "contracts/UglyUrbanGoblin.sol:UglyUrbanGoblin",
        "label": "__gap",
        "offset": 0,
        "slot": "252",
        "type": "t_array(t_uint256)49_storage"
      },
      {
        "astId": 821,
        "contract": "contracts/UglyUrbanGoblin.sol:UglyUrbanGoblin",
        "label": "_status",
        "offset": 0,
        "slot": "301",
        "type": "t_uint256"
      },
      {
        "astId": 865,
        "contract": "contracts/UglyUrbanGoblin.sol:UglyUrbanGoblin",
        "label": "__gap",
        "offset": 0,
        "slot": "302",
        "type": "t_array(t_uint256)49_storage"
      },
      {
        "astId": 2709,
        "contract": "contracts/UglyUrbanGoblin.sol:UglyUrbanGoblin",
        "label": "artPrice",
        "offset": 0,
        "slot": "351",
        "type": "t_uint256"
      },
      {
        "astId": 2711,
        "contract": "contracts/UglyUrbanGoblin.sol:UglyUrbanGoblin",
        "label": "name",
        "offset": 0,
        "slot": "352",
        "type": "t_string_storage"
      },
      {
        "astId": 2713,
        "contract": "contracts/UglyUrbanGoblin.sol:UglyUrbanGoblin",
        "label": "symbol",
        "offset": 0,
        "slot": "353",
        "type": "t_string_storage"
      },
      {
        "astId": 2715,
        "contract": "contracts/UglyUrbanGoblin.sol:UglyUrbanGoblin",
        "label": "paySplitter",
        "offset": 0,
        "slot": "354",
        "type": "t_address_payable"
      },
      {
        "astId": 2719,
        "contract": "contracts/UglyUrbanGoblin.sol:UglyUrbanGoblin",
        "label": "artSypply",
        "offset": 0,
        "slot": "355",
        "type": "t_mapping(t_uint256,t_uint256)"
      },
      {
        "astId": 2723,
        "contract": "contracts/UglyUrbanGoblin.sol:UglyUrbanGoblin",
        "label": "tokenURI",
        "offset": 0,
        "slot": "356",
        "type": "t_mapping(t_uint256,t_string_storage)"
      }
    ],
    "types": {
      "t_address": {
        "encoding": "inplace",
        "label": "address",
        "numberOfBytes": "20"
      },
      "t_address_payable": {
        "encoding": "inplace",
        "label": "address payable",
        "numberOfBytes": "20"
      },
      "t_array(t_uint256)47_storage": {
        "base": "t_uint256",
        "encoding": "inplace",
        "label": "uint256[47]",
        "numberOfBytes": "1504"
      },
      "t_array(t_uint256)49_storage": {
        "base": "t_uint256",
        "encoding": "inplace",
        "label": "uint256[49]",
        "numberOfBytes": "1568"
      },
      "t_array(t_uint256)50_storage": {
        "base": "t_uint256",
        "encoding": "inplace",
        "label": "uint256[50]",
        "numberOfBytes": "1600"
      },
      "t_bool": {
        "encoding": "inplace",
        "label": "bool",
        "numberOfBytes": "1"
      },
      "t_mapping(t_address,t_bool)": {
        "encoding": "mapping",
        "key": "t_address",
        "label": "mapping(address => bool)",
        "numberOfBytes": "32",
        "value": "t_bool"
      },
      "t_mapping(t_address,t_mapping(t_address,t_bool))": {
        "encoding": "mapping",
        "key": "t_address",
        "label": "mapping(address => mapping(address => bool))",
        "numberOfBytes": "32",
        "value": "t_mapping(t_address,t_bool)"
      },
      "t_mapping(t_address,t_uint256)": {
        "encoding": "mapping",
        "key": "t_address",
        "label": "mapping(address => uint256)",
        "numberOfBytes": "32",
        "value": "t_uint256"
      },
      "t_mapping(t_uint256,t_mapping(t_address,t_uint256))": {
        "encoding": "mapping",
        "key": "t_uint256",
        "label": "mapping(uint256 => mapping(address => uint256))",
        "numberOfBytes": "32",
        "value": "t_mapping(t_address,t_uint256)"
      },
      "t_mapping(t_uint256,t_string_storage)": {
        "encoding": "mapping",
        "key": "t_uint256",
        "label": "mapping(uint256 => string)",
        "numberOfBytes": "32",
        "value": "t_string_storage"
      },
      "t_mapping(t_uint256,t_uint256)": {
        "encoding": "mapping",
        "key": "t_uint256",
        "label": "mapping(uint256 => uint256)",
        "numberOfBytes": "32",
        "value": "t_uint256"
      },
      "t_string_storage": {
        "encoding": "bytes",
        "label": "string",
        "numberOfBytes": "32"
      },
      "t_uint256": {
        "encoding": "inplace",
        "label": "uint256",
        "numberOfBytes": "32"
      },
      "t_uint8": {
        "encoding": "inplace",
        "label": "uint8",
        "numberOfBytes": "1"
      }
    }
  }
}